{
  "_format": "hh-sol-artifact-1",
  "contractName": "AcademicCredential",
  "sourceName": "contracts/AcademicCredential.sol",
  "abi": [
    {
      "inputs": [],
      "stateMutability": "nonpayable",
      "type": "constructor"
    },
    {
      "inputs": [
        {
          "internalType": "address",
          "name": "owner",
          "type": "address"
        }
      ],
      "name": "OwnableInvalidOwner",
      "type": "error"
    },
    {
      "inputs": [
        {
          "internalType": "address",
          "name": "account",
          "type": "address"
        }
      ],
      "name": "OwnableUnauthorizedAccount",
      "type": "error"
    },
    {
      "anonymous": false,
      "inputs": [
        {
          "indexed": true,
          "internalType": "bytes32",
          "name": "requestHash",
          "type": "bytes32"
        },
        {
          "indexed": false,
          "internalType": "bool",
          "name": "approved",
          "type": "bool"
        },
        {
          "indexed": false,
          "internalType": "uint256",
          "name": "timestamp",
          "type": "uint256"
        }
      ],
      "name": "ApprovalRequestResponded",
      "type": "event"
    },
    {
      "anonymous": false,
      "inputs": [
        {
          "indexed": true,
          "internalType": "bytes32",
          "name": "requestHash",
          "type": "bytes32"
        },
        {
          "indexed": true,
          "internalType": "address",
          "name": "verifier",
          "type": "address"
        },
        {
          "indexed": true,
          "internalType": "address",
          "name": "university",
          "type": "address"
        },
        {
          "indexed": false,
          "internalType": "uint256",
          "name": "timestamp",
          "type": "uint256"
        }
      ],
      "name": "ApprovalRequestSent",
      "type": "event"
    },
    {
      "anonymous": false,
      "inputs": [
        {
          "indexed": true,
          "internalType": "bytes32",
          "name": "certificateHash",
          "type": "bytes32"
        },
        {
          "indexed": true,
          "internalType": "address",
          "name": "studentAddress",
          "type": "address"
        },
        {
          "indexed": false,
          "internalType": "enum AcademicCredential.CertificateType",
          "name": "certificateType",
          "type": "uint8"
        },
        {
          "indexed": false,
          "internalType": "uint256",
          "name": "timestamp",
          "type": "uint256"
        }
      ],
      "name": "CertificateIssued",
      "type": "event"
    },
    {
      "anonymous": false,
      "inputs": [
        {
          "indexed": true,
          "internalType": "bytes32",
          "name": "requestHash",
          "type": "bytes32"
        },
        {
          "indexed": true,
          "internalType": "address",
          "name": "verifier",
          "type": "address"
        },
        {
          "indexed": true,
          "internalType": "address",
          "name": "student",
          "type": "address"
        },
        {
          "indexed": false,
          "internalType": "uint256",
          "name": "timestamp",
          "type": "uint256"
        }
      ],
      "name": "CertificateRequested",
      "type": "event"
    },
    {
      "anonymous": false,
      "inputs": [
        {
          "indexed": true,
          "internalType": "bytes32",
          "name": "certificateHash",
          "type": "bytes32"
        },
        {
          "indexed": true,
          "internalType": "address",
          "name": "revokedBy",
          "type": "address"
        },
        {
          "indexed": false,
          "internalType": "uint256",
          "name": "timestamp",
          "type": "uint256"
        }
      ],
      "name": "CertificateRevoked",
      "type": "event"
    },
    {
      "anonymous": false,
      "inputs": [
        {
          "indexed": true,
          "internalType": "address",
          "name": "student",
          "type": "address"
        },
        {
          "indexed": true,
          "internalType": "address",
          "name": "verifier",
          "type": "address"
        },
        {
          "indexed": true,
          "internalType": "bytes32",
          "name": "certificateHash",
          "type": "bytes32"
        },
        {
          "indexed": false,
          "internalType": "uint256",
          "name": "timestamp",
          "type": "uint256"
        }
      ],
      "name": "CertificateShared",
      "type": "event"
    },
    {
      "anonymous": false,
      "inputs": [
        {
          "indexed": true,
          "internalType": "bytes32",
          "name": "documentHash",
          "type": "bytes32"
        },
        {
          "indexed": true,
          "internalType": "address",
          "name": "verifier",
          "type": "address"
        },
        {
          "indexed": true,
          "internalType": "address",
          "name": "student",
          "type": "address"
        },
        {
          "indexed": false,
          "internalType": "string",
          "name": "status",
          "type": "string"
        },
        {
          "indexed": false,
          "internalType": "uint256",
          "name": "timestamp",
          "type": "uint256"
        }
      ],
      "name": "DocumentVerified",
      "type": "event"
    },
    {
      "anonymous": false,
      "inputs": [
        {
          "indexed": true,
          "internalType": "bytes32",
          "name": "gradeSheetHash",
          "type": "bytes32"
        },
        {
          "indexed": true,
          "internalType": "address",
          "name": "studentAddress",
          "type": "address"
        },
        {
          "indexed": true,
          "internalType": "address",
          "name": "uploadedBy",
          "type": "address"
        },
        {
          "indexed": false,
          "internalType": "uint256",
          "name": "timestamp",
          "type": "uint256"
        }
      ],
      "name": "GradeSheetUploaded",
      "type": "event"
    },
    {
      "anonymous": false,
      "inputs": [
        {
          "indexed": true,
          "internalType": "bytes32",
          "name": "certificateHash",
          "type": "bytes32"
        },
        {
          "indexed": false,
          "internalType": "enum AcademicCredential.CertificateStatus",
          "name": "status",
          "type": "uint8"
        },
        {
          "indexed": false,
          "internalType": "uint256",
          "name": "timestamp",
          "type": "uint256"
        }
      ],
      "name": "NonAcademicCertificateStatusUpdated",
      "type": "event"
    },
    {
      "anonymous": false,
      "inputs": [
        {
          "indexed": true,
          "internalType": "address",
          "name": "previousOwner",
          "type": "address"
        },
        {
          "indexed": true,
          "internalType": "address",
          "name": "newOwner",
          "type": "address"
        }
      ],
      "name": "OwnershipTransferred",
      "type": "event"
    },
    {
      "anonymous": false,
      "inputs": [
        {
          "indexed": true,
          "internalType": "address",
          "name": "userAddress",
          "type": "address"
        },
        {
          "indexed": false,
          "internalType": "string",
          "name": "ipfsHash",
          "type": "string"
        },
        {
          "indexed": false,
          "internalType": "uint256",
          "name": "timestamp",
          "type": "uint256"
        }
      ],
      "name": "ProfileUpdated",
      "type": "event"
    },
    {
      "anonymous": false,
      "inputs": [
        {
          "indexed": true,
          "internalType": "bytes32",
          "name": "requestHash",
          "type": "bytes32"
        },
        {
          "indexed": true,
          "internalType": "address",
          "name": "walletAddress",
          "type": "address"
        },
        {
          "indexed": false,
          "internalType": "string",
          "name": "entityType",
          "type": "string"
        },
        {
          "indexed": false,
          "internalType": "uint256",
          "name": "timestamp",
          "type": "uint256"
        }
      ],
      "name": "RegistrationRequestApproved",
      "type": "event"
    },
    {
      "anonymous": false,
      "inputs": [
        {
          "indexed": true,
          "internalType": "bytes32",
          "name": "requestHash",
          "type": "bytes32"
        },
        {
          "indexed": true,
          "internalType": "address",
          "name": "walletAddress",
          "type": "address"
        },
        {
          "indexed": false,
          "internalType": "string",
          "name": "entityType",
          "type": "string"
        },
        {
          "indexed": false,
          "internalType": "uint256",
          "name": "timestamp",
          "type": "uint256"
        }
      ],
      "name": "RegistrationRequestRejected",
      "type": "event"
    },
    {
      "anonymous": false,
      "inputs": [
        {
          "indexed": true,
          "internalType": "bytes32",
          "name": "requestHash",
          "type": "bytes32"
        },
        {
          "indexed": true,
          "internalType": "address",
          "name": "walletAddress",
          "type": "address"
        },
        {
          "indexed": false,
          "internalType": "string",
          "name": "entityType",
          "type": "string"
        },
        {
          "indexed": false,
          "internalType": "uint256",
          "name": "timestamp",
          "type": "uint256"
        }
      ],
      "name": "RegistrationRequestSubmitted",
      "type": "event"
    },
    {
      "anonymous": false,
      "inputs": [
        {
          "indexed": true,
          "internalType": "address",
          "name": "studentAddress",
          "type": "address"
        },
        {
          "indexed": true,
          "internalType": "address",
          "name": "universityAddress",
          "type": "address"
        },
        {
          "indexed": false,
          "internalType": "string",
          "name": "name",
          "type": "string"
        },
        {
          "indexed": false,
          "internalType": "uint256",
          "name": "timestamp",
          "type": "uint256"
        }
      ],
      "name": "StudentRegistered",
      "type": "event"
    },
    {
      "anonymous": false,
      "inputs": [
        {
          "indexed": true,
          "internalType": "address",
          "name": "universityAddress",
          "type": "address"
        },
        {
          "indexed": false,
          "internalType": "string",
          "name": "name",
          "type": "string"
        },
        {
          "indexed": false,
          "internalType": "uint256",
          "name": "timestamp",
          "type": "uint256"
        }
      ],
      "name": "UniversityRegistered",
      "type": "event"
    },
    {
      "anonymous": false,
      "inputs": [
        {
          "indexed": true,
          "internalType": "address",
          "name": "university",
          "type": "address"
        },
        {
          "indexed": true,
          "internalType": "address",
          "name": "verifier",
          "type": "address"
        },
        {
          "indexed": false,
          "internalType": "uint256",
          "name": "timestamp",
          "type": "uint256"
        }
      ],
      "name": "VerifierApprovedByUniversity",
      "type": "event"
    },
    {
      "anonymous": false,
      "inputs": [
        {
          "indexed": true,
          "internalType": "address",
          "name": "verifierAddress",
          "type": "address"
        },
        {
          "indexed": false,
          "internalType": "string",
          "name": "companyName",
          "type": "string"
        },
        {
          "indexed": false,
          "internalType": "uint256",
          "name": "timestamp",
          "type": "uint256"
        }
      ],
      "name": "VerifierRegistered",
      "type": "event"
    },
    {
      "anonymous": false,
      "inputs": [
        {
          "indexed": true,
          "internalType": "address",
          "name": "university",
          "type": "address"
        },
        {
          "indexed": true,
          "internalType": "address",
          "name": "verifier",
          "type": "address"
        },
        {
          "indexed": false,
          "internalType": "uint256",
          "name": "timestamp",
          "type": "uint256"
        }
      ],
      "name": "VerifierRejectedByUniversity",
      "type": "event"
    },
    {
      "inputs": [
        {
          "internalType": "address",
          "name": "",
          "type": "address"
        }
      ],
      "name": "addressToRegistrationRequest",
      "outputs": [
        {
          "internalType": "bytes32",
          "name": "",
          "type": "bytes32"
        }
      ],
      "stateMutability": "view",
      "type": "function"
    },
    {
      "inputs": [
        {
          "internalType": "uint256",
          "name": "",
          "type": "uint256"
        }
      ],
      "name": "allCertificates",
      "outputs": [
        {
          "internalType": "bytes32",
          "name": "",
          "type": "bytes32"
        }
      ],
      "stateMutability": "view",
      "type": "function"
    },
    {
      "inputs": [
        {
          "internalType": "uint256",
          "name": "",
          "type": "uint256"
        }
      ],
      "name": "allRegistrationRequests",
      "outputs": [
        {
          "internalType": "bytes32",
          "name": "",
          "type": "bytes32"
        }
      ],
      "stateMutability": "view",
      "type": "function"
    },
    {
      "inputs": [
        {
          "internalType": "uint256",
          "name": "",
          "type": "uint256"
        }
      ],
      "name": "allStudents",
      "outputs": [
        {
          "internalType": "address",
          "name": "",
          "type": "address"
        }
      ],
      "stateMutability": "view",
      "type": "function"
    },
    {
      "inputs": [
        {
          "internalType": "uint256",
          "name": "",
          "type": "uint256"
        }
      ],
      "name": "allUniversities",
      "outputs": [
        {
          "internalType": "address",
          "name": "",
          "type": "address"
        }
      ],
      "stateMutability": "view",
      "type": "function"
    },
    {
      "inputs": [
        {
          "internalType": "uint256",
          "name": "",
          "type": "uint256"
        }
      ],
      "name": "allVerifiers",
      "outputs": [
        {
          "internalType": "address",
          "name": "",
          "type": "address"
        }
      ],
      "stateMutability": "view",
      "type": "function"
    },
    {
      "inputs": [
        {
          "internalType": "string",
          "name": "",
          "type": "string"
        }
      ],
      "name": "apaarIdToStudent",
      "outputs": [
        {
          "internalType": "address",
          "name": "",
          "type": "address"
        }
      ],
      "stateMutability": "view",
      "type": "function"
    },
    {
      "inputs": [
        {
          "internalType": "bytes32",
          "name": "",
          "type": "bytes32"
        }
      ],
      "name": "approvalRequests",
      "outputs": [
        {
          "internalType": "address",
          "name": "verifierAddress",
          "type": "address"
        },
        {
          "internalType": "address",
          "name": "universityAddress",
          "type": "address"
        },
        {
          "internalType": "string",
          "name": "message",
          "type": "string"
        },
        {
          "internalType": "bool",
          "name": "isApproved",
          "type": "bool"
        },
        {
          "internalType": "bool",
          "name": "isRejected",
          "type": "bool"
        },
        {
          "internalType": "uint256",
          "name": "requestedAt",
          "type": "uint256"
        },
        {
          "internalType": "uint256",
          "name": "respondedAt",
          "type": "uint256"
        }
      ],
      "stateMutability": "view",
      "type": "function"
    },
    {
      "inputs": [
        {
          "internalType": "bytes32",
          "name": "_certificateHash",
          "type": "bytes32"
        }
      ],
      "name": "approveNonAcademicCertificate",
      "outputs": [],
      "stateMutability": "nonpayable",
      "type": "function"
    },
    {
      "inputs": [
        {
          "internalType": "bytes32",
          "name": "_requestHash",
          "type": "bytes32"
        }
      ],
      "name": "approveRegistrationRequest",
      "outputs": [],
      "stateMutability": "nonpayable",
      "type": "function"
    },
    {
      "inputs": [
        {
          "internalType": "address",
          "name": "_verifierAddress",
          "type": "address"
        }
      ],
      "name": "approveVerifier",
      "outputs": [],
      "stateMutability": "nonpayable",
      "type": "function"
    },
    {
      "inputs": [
        {
          "internalType": "bytes32",
          "name": "",
          "type": "bytes32"
        }
      ],
      "name": "certificateExists",
      "outputs": [
        {
          "internalType": "bool",
          "name": "",
          "type": "bool"
        }
      ],
      "stateMutability": "view",
      "type": "function"
    },
    {
      "inputs": [
        {
          "internalType": "bytes32",
          "name": "",
          "type": "bytes32"
        }
      ],
      "name": "certificateRequests",
      "outputs": [
        {
          "internalType": "address",
          "name": "verifierAddress",
          "type": "address"
        },
        {
          "internalType": "address",
          "name": "studentAddress",
          "type": "address"
        },
        {
          "internalType": "string",
          "name": "message",
          "type": "string"
        },
        {
          "internalType": "bool",
          "name": "isApproved",
          "type": "bool"
        },
        {
          "internalType": "bool",
          "name": "isRejected",
          "type": "bool"
        },
        {
          "internalType": "uint256",
          "name": "requestedAt",
          "type": "uint256"
        },
        {
          "internalType": "uint256",
          "name": "respondedAt",
          "type": "uint256"
        }
      ],
      "stateMutability": "view",
      "type": "function"
    },
    {
      "inputs": [
        {
          "internalType": "bytes32",
          "name": "",
          "type": "bytes32"
        }
      ],
      "name": "certificates",
      "outputs": [
        {
          "internalType": "string",
          "name": "certificateHash",
          "type": "string"
        },
        {
          "internalType": "string",
          "name": "certificateName",
          "type": "string"
        },
        {
          "internalType": "address",
          "name": "studentAddress",
          "type": "address"
        },
        {
          "internalType": "address",
          "name": "issuedBy",
          "type": "address"
        },
        {
          "internalType": "enum AcademicCredential.CertificateType",
          "name": "certificateType",
          "type": "uint8"
        },
        {
          "internalType": "enum AcademicCredential.CertificateStatus",
          "name": "status",
          "type": "uint8"
        },
        {
          "internalType": "uint256",
          "name": "issueDate",
          "type": "uint256"
        },
        {
          "internalType": "uint256",
          "name": "graduationDate",
          "type": "uint256"
        },
        {
          "internalType": "string",
          "name": "degreeType",
          "type": "string"
        },
        {
          "internalType": "string",
          "name": "fieldOfStudy",
          "type": "string"
        },
        {
          "internalType": "bool",
          "name": "isRevoked",
          "type": "bool"
        },
        {
          "internalType": "string",
          "name": "metadata",
          "type": "string"
        },
        {
          "internalType": "string",
          "name": "ipfsHash",
          "type": "string"
        }
      ],
      "stateMutability": "view",
      "type": "function"
    },
    {
      "inputs": [
        {
          "internalType": "address",
          "name": "_universityAddress",
          "type": "address"
        }
      ],
      "name": "deactivateUniversity",
      "outputs": [],
      "stateMutability": "nonpayable",
      "type": "function"
    },
    {
      "inputs": [
        {
          "internalType": "address",
          "name": "_verifierAddress",
          "type": "address"
        }
      ],
      "name": "deactivateVerifier",
      "outputs": [],
      "stateMutability": "nonpayable",
      "type": "function"
    },
    {
      "inputs": [
        {
          "internalType": "bytes32",
          "name": "",
          "type": "bytes32"
        },
        {
          "internalType": "address",
          "name": "",
          "type": "address"
        }
      ],
      "name": "documentVerifications",
      "outputs": [
        {
          "internalType": "address",
          "name": "verifierAddress",
          "type": "address"
        },
        {
          "internalType": "address",
          "name": "studentAddress",
          "type": "address"
        },
        {
          "internalType": "bytes32",
          "name": "documentHash",
          "type": "bytes32"
        },
        {
          "internalType": "string",
          "name": "documentType",
          "type": "string"
        },
        {
          "internalType": "string",
          "name": "status",
          "type": "string"
        },
        {
          "internalType": "string",
          "name": "comments",
          "type": "string"
        },
        {
          "internalType": "uint256",
          "name": "verifiedAt",
          "type": "uint256"
        }
      ],
      "stateMutability": "view",
      "type": "function"
    },
    {
      "inputs": [],
      "name": "getAllRegistrationRequests",
      "outputs": [
        {
          "internalType": "bytes32[]",
          "name": "",
          "type": "bytes32[]"
        }
      ],
      "stateMutability": "view",
      "type": "function"
    },
    {
      "inputs": [],
      "name": "getAllStudents",
      "outputs": [
        {
          "internalType": "address[]",
          "name": "",
          "type": "address[]"
        }
      ],
      "stateMutability": "view",
      "type": "function"
    },
    {
      "inputs": [],
      "name": "getAllUniversities",
      "outputs": [
        {
          "internalType": "address[]",
          "name": "",
          "type": "address[]"
        }
      ],
      "stateMutability": "view",
      "type": "function"
    },
    {
      "inputs": [],
      "name": "getAllVerifiers",
      "outputs": [
        {
          "internalType": "address[]",
          "name": "",
          "type": "address[]"
        }
      ],
      "stateMutability": "view",
      "type": "function"
    },
    {
      "inputs": [
        {
          "internalType": "bytes32",
          "name": "_certificateHash",
          "type": "bytes32"
        }
      ],
      "name": "getCertificate",
      "outputs": [
        {
          "components": [
            {
              "internalType": "string",
              "name": "certificateHash",
              "type": "string"
            },
            {
              "internalType": "string",
              "name": "certificateName",
              "type": "string"
            },
            {
              "internalType": "address",
              "name": "studentAddress",
              "type": "address"
            },
            {
              "internalType": "address",
              "name": "issuedBy",
              "type": "address"
            },
            {
              "internalType": "enum AcademicCredential.CertificateType",
              "name": "certificateType",
              "type": "uint8"
            },
            {
              "internalType": "enum AcademicCredential.CertificateStatus",
              "name": "status",
              "type": "uint8"
            },
            {
              "internalType": "uint256",
              "name": "issueDate",
              "type": "uint256"
            },
            {
              "internalType": "uint256",
              "name": "graduationDate",
              "type": "uint256"
            },
            {
              "internalType": "string",
              "name": "degreeType",
              "type": "string"
            },
            {
              "internalType": "string",
              "name": "fieldOfStudy",
              "type": "string"
            },
            {
              "internalType": "bool",
              "name": "isRevoked",
              "type": "bool"
            },
            {
              "internalType": "string",
              "name": "metadata",
              "type": "string"
            },
            {
              "internalType": "string",
              "name": "ipfsHash",
              "type": "string"
            }
          ],
          "internalType": "struct AcademicCredential.Certificate",
          "name": "",
          "type": "tuple"
        }
      ],
      "stateMutability": "view",
      "type": "function"
    },
    {
      "inputs": [
        {
          "internalType": "bytes32",
          "name": "_documentHash",
          "type": "bytes32"
        },
        {
          "internalType": "address",
          "name": "_verifierAddress",
          "type": "address"
        }
      ],
      "name": "getDocumentVerification",
      "outputs": [
        {
          "components": [
            {
              "internalType": "address",
              "name": "verifierAddress",
              "type": "address"
            },
            {
              "internalType": "address",
              "name": "studentAddress",
              "type": "address"
            },
            {
              "internalType": "bytes32",
              "name": "documentHash",
              "type": "bytes32"
            },
            {
              "internalType": "string",
              "name": "documentType",
              "type": "string"
            },
            {
              "internalType": "string",
              "name": "status",
              "type": "string"
            },
            {
              "internalType": "string",
              "name": "comments",
              "type": "string"
            },
            {
              "internalType": "uint256",
              "name": "verifiedAt",
              "type": "uint256"
            }
          ],
          "internalType": "struct AcademicCredential.DocumentVerification",
          "name": "",
          "type": "tuple"
        }
      ],
      "stateMutability": "view",
      "type": "function"
    },
    {
      "inputs": [],
      "name": "getPendingRegistrationRequests",
      "outputs": [
        {
          "internalType": "bytes32[]",
          "name": "",
          "type": "bytes32[]"
        }
      ],
      "stateMutability": "view",
      "type": "function"
    },
    {
      "inputs": [
        {
          "internalType": "address",
          "name": "_studentAddress",
          "type": "address"
        },
        {
          "internalType": "address",
          "name": "_verifierAddress",
          "type": "address"
        }
      ],
      "name": "getSharedCertificates",
      "outputs": [
        {
          "internalType": "bytes32[]",
          "name": "",
          "type": "bytes32[]"
        }
      ],
      "stateMutability": "view",
      "type": "function"
    },
    {
      "inputs": [
        {
          "internalType": "address",
          "name": "_studentAddress",
          "type": "address"
        },
        {
          "internalType": "address",
          "name": "_verifierAddress",
          "type": "address"
        }
      ],
      "name": "getSharedGradeSheets",
      "outputs": [
        {
          "internalType": "bytes32[]",
          "name": "",
          "type": "bytes32[]"
        }
      ],
      "stateMutability": "view",
      "type": "function"
    },
    {
      "inputs": [
        {
          "internalType": "string",
          "name": "_apaarId",
          "type": "string"
        }
      ],
      "name": "getStudentByApaarId",
      "outputs": [
        {
          "internalType": "address",
          "name": "",
          "type": "address"
        }
      ],
      "stateMutability": "view",
      "type": "function"
    },
    {
      "inputs": [
        {
          "internalType": "address",
          "name": "_studentAddress",
          "type": "address"
        }
      ],
      "name": "getStudentCertificates",
      "outputs": [
        {
          "internalType": "bytes32[]",
          "name": "",
          "type": "bytes32[]"
        }
      ],
      "stateMutability": "view",
      "type": "function"
    },
    {
      "inputs": [
        {
          "internalType": "string",
          "name": "_apaarId",
          "type": "string"
        }
      ],
      "name": "getStudentDetailsByApaarId",
      "outputs": [
        {
          "internalType": "address",
          "name": "studentAddress",
          "type": "address"
        },
        {
          "internalType": "string",
          "name": "name",
          "type": "string"
        },
        {
          "internalType": "string",
          "name": "email",
          "type": "string"
        },
        {
          "internalType": "string",
          "name": "studentId",
          "type": "string"
        },
        {
          "internalType": "string",
          "name": "apaarId",
          "type": "string"
        },
        {
          "internalType": "address",
          "name": "universityAddress",
          "type": "address"
        },
        {
          "internalType": "uint256",
          "name": "yearOfJoining",
          "type": "uint256"
        },
        {
          "internalType": "string",
          "name": "branch",
          "type": "string"
        },
        {
          "internalType": "bool",
          "name": "isActive",
          "type": "bool"
        }
      ],
      "stateMutability": "view",
      "type": "function"
    },
    {
      "inputs": [
        {
          "internalType": "address",
          "name": "_studentAddress",
          "type": "address"
        }
      ],
      "name": "getStudentGradeSheets",
      "outputs": [
        {
          "internalType": "bytes32[]",
          "name": "",
          "type": "bytes32[]"
        }
      ],
      "stateMutability": "view",
      "type": "function"
    },
    {
      "inputs": [
        {
          "internalType": "address",
          "name": "_studentAddress",
          "type": "address"
        }
      ],
      "name": "getStudentRequests",
      "outputs": [
        {
          "internalType": "bytes32[]",
          "name": "",
          "type": "bytes32[]"
        }
      ],
      "stateMutability": "view",
      "type": "function"
    },
    {
      "inputs": [
        {
          "internalType": "address",
          "name": "_studentAddress",
          "type": "address"
        }
      ],
      "name": "getStudentVerificationNotifications",
      "outputs": [
        {
          "internalType": "bytes32[]",
          "name": "",
          "type": "bytes32[]"
        }
      ],
      "stateMutability": "view",
      "type": "function"
    },
    {
      "inputs": [
        {
          "internalType": "address",
          "name": "_universityAddress",
          "type": "address"
        },
        {
          "internalType": "uint256",
          "name": "_yearOfJoining",
          "type": "uint256"
        },
        {
          "internalType": "string",
          "name": "_branch",
          "type": "string"
        }
      ],
      "name": "getStudentsByUniversityAndFilters",
      "outputs": [
        {
          "internalType": "address[]",
          "name": "",
          "type": "address[]"
        }
      ],
      "stateMutability": "view",
      "type": "function"
    },
    {
      "inputs": [
        {
          "internalType": "address",
          "name": "_university",
          "type": "address"
        }
      ],
      "name": "getUniversityApprovalRequests",
      "outputs": [
        {
          "internalType": "bytes32[]",
          "name": "",
          "type": "bytes32[]"
        }
      ],
      "stateMutability": "view",
      "type": "function"
    },
    {
      "inputs": [
        {
          "internalType": "address",
          "name": "_university",
          "type": "address"
        }
      ],
      "name": "getUniversityApprovedVerifiers",
      "outputs": [
        {
          "internalType": "address[]",
          "name": "",
          "type": "address[]"
        }
      ],
      "stateMutability": "view",
      "type": "function"
    },
    {
      "inputs": [
        {
          "internalType": "address",
          "name": "_universityAddress",
          "type": "address"
        }
      ],
      "name": "getUniversityStudents",
      "outputs": [
        {
          "internalType": "address[]",
          "name": "",
          "type": "address[]"
        }
      ],
      "stateMutability": "view",
      "type": "function"
    },
    {
      "inputs": [
        {
          "internalType": "address",
          "name": "_studentAddress",
          "type": "address"
        }
      ],
      "name": "getVerificationNotificationCount",
      "outputs": [
        {
          "internalType": "uint256",
          "name": "",
          "type": "uint256"
        }
      ],
      "stateMutability": "view",
      "type": "function"
    },
    {
      "inputs": [
        {
          "internalType": "address",
          "name": "_verifier",
          "type": "address"
        }
      ],
      "name": "getVerifierApprovalRequests",
      "outputs": [
        {
          "internalType": "bytes32[]",
          "name": "",
          "type": "bytes32[]"
        }
      ],
      "stateMutability": "view",
      "type": "function"
    },
    {
      "inputs": [
        {
          "internalType": "address",
          "name": "_verifier",
          "type": "address"
        }
      ],
      "name": "getVerifierApprovedUniversities",
      "outputs": [
        {
          "internalType": "address[]",
          "name": "",
          "type": "address[]"
        }
      ],
      "stateMutability": "view",
      "type": "function"
    },
    {
      "inputs": [
        {
          "internalType": "bytes32",
          "name": "",
          "type": "bytes32"
        }
      ],
      "name": "gradeSheets",
      "outputs": [
        {
          "internalType": "bytes32",
          "name": "certificateHash",
          "type": "bytes32"
        },
        {
          "internalType": "string",
          "name": "ipfsHash",
          "type": "string"
        },
        {
          "internalType": "address",
          "name": "studentAddress",
          "type": "address"
        },
        {
          "internalType": "address",
          "name": "uploadedBy",
          "type": "address"
        },
        {
          "internalType": "uint256",
          "name": "uploadDate",
          "type": "uint256"
        },
        {
          "internalType": "string",
          "name": "semester",
          "type": "string"
        },
        {
          "internalType": "string",
          "name": "academicYear",
          "type": "string"
        },
        {
          "internalType": "bool",
          "name": "isVisible",
          "type": "bool"
        }
      ],
      "stateMutability": "view",
      "type": "function"
    },
    {
      "inputs": [
        {
          "internalType": "address",
          "name": "_address",
          "type": "address"
        }
      ],
      "name": "hasRegistrationRequest",
      "outputs": [
        {
          "internalType": "bool",
          "name": "",
          "type": "bool"
        }
      ],
      "stateMutability": "view",
      "type": "function"
    },
    {
      "inputs": [
        {
          "internalType": "address",
          "name": "_university",
          "type": "address"
        },
        {
          "internalType": "address",
          "name": "_verifier",
          "type": "address"
        }
      ],
      "name": "isVerifierApprovedByUniversity",
      "outputs": [
        {
          "internalType": "bool",
          "name": "",
          "type": "bool"
        }
      ],
      "stateMutability": "view",
      "type": "function"
    },
    {
      "inputs": [
        {
          "internalType": "address",
          "name": "_studentAddress",
          "type": "address"
        },
        {
          "internalType": "string",
          "name": "_certificateHash",
          "type": "string"
        },
        {
          "internalType": "string",
          "name": "_certificateName",
          "type": "string"
        },
        {
          "internalType": "string",
          "name": "_degreeType",
          "type": "string"
        },
        {
          "internalType": "string",
          "name": "_fieldOfStudy",
          "type": "string"
        },
        {
          "internalType": "uint256",
          "name": "_graduationDate",
          "type": "uint256"
        },
        {
          "internalType": "string",
          "name": "_metadata",
          "type": "string"
        }
      ],
      "name": "issueAcademicCertificate",
      "outputs": [],
      "stateMutability": "nonpayable",
      "type": "function"
    },
    {
      "inputs": [],
      "name": "owner",
      "outputs": [
        {
          "internalType": "address",
          "name": "",
          "type": "address"
        }
      ],
      "stateMutability": "view",
      "type": "function"
    },
    {
      "inputs": [
        {
          "internalType": "address",
          "name": "_studentAddress",
          "type": "address"
        },
        {
          "internalType": "string",
          "name": "_name",
          "type": "string"
        },
        {
          "internalType": "string",
          "name": "_email",
          "type": "string"
        },
        {
          "internalType": "string",
          "name": "_studentId",
          "type": "string"
        },
        {
          "internalType": "string",
          "name": "_apaarId",
          "type": "string"
        },
        {
          "internalType": "uint256",
          "name": "_yearOfJoining",
          "type": "uint256"
        },
        {
          "internalType": "string",
          "name": "_branch",
          "type": "string"
        }
      ],
      "name": "registerStudent",
      "outputs": [],
      "stateMutability": "nonpayable",
      "type": "function"
    },
    {
      "inputs": [
        {
          "internalType": "address",
          "name": "_universityAddress",
          "type": "address"
        },
        {
          "internalType": "string",
          "name": "_name",
          "type": "string"
        },
        {
          "internalType": "string",
          "name": "_registrationNumber",
          "type": "string"
        },
        {
          "internalType": "string",
          "name": "_contactEmail",
          "type": "string"
        }
      ],
      "name": "registerUniversity",
      "outputs": [],
      "stateMutability": "nonpayable",
      "type": "function"
    },
    {
      "inputs": [
        {
          "internalType": "address",
          "name": "_verifierAddress",
          "type": "address"
        },
        {
          "internalType": "string",
          "name": "_companyName",
          "type": "string"
        },
        {
          "internalType": "string",
          "name": "_registrationNumber",
          "type": "string"
        },
        {
          "internalType": "string",
          "name": "_contactEmail",
          "type": "string"
        }
      ],
      "name": "registerVerifier",
      "outputs": [],
      "stateMutability": "nonpayable",
      "type": "function"
    },
    {
      "inputs": [
        {
          "internalType": "bytes32",
          "name": "",
          "type": "bytes32"
        }
      ],
      "name": "registrationRequests",
      "outputs": [
        {
          "internalType": "address",
          "name": "walletAddress",
          "type": "address"
        },
        {
          "internalType": "string",
          "name": "entityType",
          "type": "string"
        },
        {
          "internalType": "string",
          "name": "name",
          "type": "string"
        },
        {
          "internalType": "string",
          "name": "registrationNumber",
          "type": "string"
        },
        {
          "internalType": "string",
          "name": "email",
          "type": "string"
        },
        {
          "internalType": "string",
          "name": "contactPerson",
          "type": "string"
        },
        {
          "internalType": "string",
          "name": "phoneNumber",
          "type": "string"
        },
        {
          "internalType": "string",
          "name": "website",
          "type": "string"
        },
        {
          "internalType": "string",
          "name": "description",
          "type": "string"
        },
        {
          "internalType": "bool",
          "name": "isApproved",
          "type": "bool"
        },
        {
          "internalType": "bool",
          "name": "isRejected",
          "type": "bool"
        },
        {
          "internalType": "uint256",
          "name": "requestedAt",
          "type": "uint256"
        },
        {
          "internalType": "uint256",
          "name": "respondedAt",
          "type": "uint256"
        }
      ],
      "stateMutability": "view",
      "type": "function"
    },
    {
      "inputs": [
        {
          "internalType": "bytes32",
          "name": "_certificateHash",
          "type": "bytes32"
        }
      ],
      "name": "rejectNonAcademicCertificate",
      "outputs": [],
      "stateMutability": "nonpayable",
      "type": "function"
    },
    {
      "inputs": [
        {
          "internalType": "bytes32",
          "name": "_requestHash",
          "type": "bytes32"
        },
        {
          "internalType": "string",
          "name": "_reason",
          "type": "string"
        }
      ],
      "name": "rejectRegistrationRequest",
      "outputs": [],
      "stateMutability": "nonpayable",
      "type": "function"
    },
    {
      "inputs": [
        {
          "internalType": "address",
          "name": "_verifierAddress",
          "type": "address"
        }
      ],
      "name": "rejectVerifier",
      "outputs": [],
      "stateMutability": "nonpayable",
      "type": "function"
    },
    {
      "inputs": [],
      "name": "renounceOwnership",
      "outputs": [],
      "stateMutability": "nonpayable",
      "type": "function"
    },
    {
      "inputs": [
        {
          "internalType": "address",
          "name": "_studentAddress",
          "type": "address"
        },
        {
          "internalType": "string",
          "name": "_message",
          "type": "string"
        }
      ],
      "name": "requestCertificates",
      "outputs": [],
      "stateMutability": "nonpayable",
      "type": "function"
    },
    {
      "inputs": [
        {
          "internalType": "bytes32",
          "name": "_requestHash",
          "type": "bytes32"
        },
        {
          "internalType": "bool",
          "name": "_approve",
          "type": "bool"
        }
      ],
      "name": "respondToApprovalRequest",
      "outputs": [],
      "stateMutability": "nonpayable",
      "type": "function"
    },
    {
      "inputs": [
        {
          "internalType": "bytes32",
          "name": "_requestHash",
          "type": "bytes32"
        },
        {
          "internalType": "bool",
          "name": "_approve",
          "type": "bool"
        },
        {
          "internalType": "bytes32[]",
          "name": "_certificateHashes",
          "type": "bytes32[]"
        },
        {
          "internalType": "bytes32[]",
          "name": "_gradeSheetHashes",
          "type": "bytes32[]"
        }
      ],
      "name": "respondToCertificateRequest",
      "outputs": [],
      "stateMutability": "nonpayable",
      "type": "function"
    },
    {
      "inputs": [
        {
          "internalType": "address",
          "name": "_universityAddress",
          "type": "address"
        },
        {
          "internalType": "string",
          "name": "_message",
          "type": "string"
        }
      ],
      "name": "sendApprovalRequest",
      "outputs": [],
      "stateMutability": "nonpayable",
      "type": "function"
    },
    {
      "inputs": [
        {
          "internalType": "address",
          "name": "_verifierAddress",
          "type": "address"
        },
        {
          "internalType": "bytes32",
          "name": "_certificateHash",
          "type": "bytes32"
        }
      ],
      "name": "shareCertificateWithVerifier",
      "outputs": [],
      "stateMutability": "nonpayable",
      "type": "function"
    },
    {
      "inputs": [
        {
          "internalType": "address",
          "name": "",
          "type": "address"
        },
        {
          "internalType": "address",
          "name": "",
          "type": "address"
        },
        {
          "internalType": "uint256",
          "name": "",
          "type": "uint256"
        }
      ],
      "name": "sharedCertificates",
      "outputs": [
        {
          "internalType": "bytes32",
          "name": "",
          "type": "bytes32"
        }
      ],
      "stateMutability": "view",
      "type": "function"
    },
    {
      "inputs": [
        {
          "internalType": "address",
          "name": "",
          "type": "address"
        },
        {
          "internalType": "address",
          "name": "",
          "type": "address"
        },
        {
          "internalType": "uint256",
          "name": "",
          "type": "uint256"
        }
      ],
      "name": "sharedGradeSheets",
      "outputs": [
        {
          "internalType": "bytes32",
          "name": "",
          "type": "bytes32"
        }
      ],
      "stateMutability": "view",
      "type": "function"
    },
    {
      "inputs": [
        {
          "internalType": "address",
          "name": "",
          "type": "address"
        },
        {
          "internalType": "uint256",
          "name": "",
          "type": "uint256"
        }
      ],
      "name": "studentCertificates",
      "outputs": [
        {
          "internalType": "bytes32",
          "name": "",
          "type": "bytes32"
        }
      ],
      "stateMutability": "view",
      "type": "function"
    },
    {
      "inputs": [
        {
          "internalType": "address",
          "name": "",
          "type": "address"
        },
        {
          "internalType": "uint256",
          "name": "",
          "type": "uint256"
        }
      ],
      "name": "studentGradeSheets",
      "outputs": [
        {
          "internalType": "bytes32",
          "name": "",
          "type": "bytes32"
        }
      ],
      "stateMutability": "view",
      "type": "function"
    },
    {
      "inputs": [
        {
          "internalType": "address",
          "name": "",
          "type": "address"
        },
        {
          "internalType": "uint256",
          "name": "",
          "type": "uint256"
        }
      ],
      "name": "studentRequests",
      "outputs": [
        {
          "internalType": "bytes32",
          "name": "",
          "type": "bytes32"
        }
      ],
      "stateMutability": "view",
      "type": "function"
    },
    {
      "inputs": [
        {
          "internalType": "address",
          "name": "",
          "type": "address"
        },
        {
          "internalType": "uint256",
          "name": "",
          "type": "uint256"
        }
      ],
      "name": "studentVerificationNotifications",
      "outputs": [
        {
          "internalType": "bytes32",
          "name": "",
          "type": "bytes32"
        }
      ],
      "stateMutability": "view",
      "type": "function"
    },
    {
      "inputs": [
        {
          "internalType": "address",
          "name": "",
          "type": "address"
        }
      ],
      "name": "students",
      "outputs": [
        {
          "internalType": "string",
          "name": "name",
          "type": "string"
        },
        {
          "internalType": "string",
          "name": "email",
          "type": "string"
        },
        {
          "internalType": "string",
          "name": "studentId",
          "type": "string"
        },
        {
          "internalType": "string",
          "name": "apaarId",
          "type": "string"
        },
        {
          "internalType": "address",
          "name": "walletAddress",
          "type": "address"
        },
        {
          "internalType": "address",
          "name": "universityAddress",
          "type": "address"
        },
        {
          "internalType": "uint256",
          "name": "yearOfJoining",
          "type": "uint256"
        },
        {
          "internalType": "string",
          "name": "branch",
          "type": "string"
        },
        {
          "internalType": "bool",
          "name": "isActive",
          "type": "bool"
        },
        {
          "internalType": "uint256",
          "name": "registeredAt",
          "type": "uint256"
        },
        {
          "internalType": "string",
          "name": "ipfsHash",
          "type": "string"
        }
      ],
      "stateMutability": "view",
      "type": "function"
    },
    {
      "inputs": [
        {
          "internalType": "bytes32",
          "name": "_documentHash",
          "type": "bytes32"
        },
        {
          "internalType": "address",
          "name": "_studentAddress",
          "type": "address"
        },
        {
          "internalType": "string",
          "name": "_documentType",
          "type": "string"
        },
        {
          "internalType": "string",
          "name": "_status",
          "type": "string"
        },
        {
          "internalType": "string",
          "name": "_comments",
          "type": "string"
        }
      ],
      "name": "submitDocumentVerification",
      "outputs": [],
      "stateMutability": "nonpayable",
      "type": "function"
    },
    {
      "inputs": [
        {
          "internalType": "string",
          "name": "_entityType",
          "type": "string"
        },
        {
          "internalType": "string",
          "name": "_name",
          "type": "string"
        },
        {
          "internalType": "string",
          "name": "_registrationNumber",
          "type": "string"
        },
        {
          "internalType": "string",
          "name": "_email",
          "type": "string"
        },
        {
          "internalType": "string",
          "name": "_contactPerson",
          "type": "string"
        },
        {
          "internalType": "string",
          "name": "_phoneNumber",
          "type": "string"
        },
        {
          "internalType": "string",
          "name": "_website",
          "type": "string"
        },
        {
          "internalType": "string",
          "name": "_description",
          "type": "string"
        }
      ],
      "name": "submitRegistrationRequest",
      "outputs": [],
      "stateMutability": "nonpayable",
      "type": "function"
    },
    {
      "inputs": [
        {
          "internalType": "address",
          "name": "newOwner",
          "type": "address"
        }
      ],
      "name": "transferOwnership",
      "outputs": [],
      "stateMutability": "nonpayable",
      "type": "function"
    },
    {
      "inputs": [
        {
          "internalType": "address",
          "name": "",
          "type": "address"
        }
      ],
      "name": "universities",
      "outputs": [
        {
          "internalType": "string",
          "name": "name",
          "type": "string"
        },
        {
          "internalType": "string",
          "name": "registrationNumber",
          "type": "string"
        },
        {
          "internalType": "string",
          "name": "contactEmail",
          "type": "string"
        },
        {
          "internalType": "address",
          "name": "walletAddress",
          "type": "address"
        },
        {
          "internalType": "bool",
          "name": "isActive",
          "type": "bool"
        },
        {
          "internalType": "uint256",
          "name": "registeredAt",
          "type": "uint256"
        },
        {
          "internalType": "string",
          "name": "ipfsHash",
          "type": "string"
        }
      ],
      "stateMutability": "view",
      "type": "function"
    },
    {
      "inputs": [
        {
          "internalType": "address",
          "name": "",
          "type": "address"
        },
        {
          "internalType": "uint256",
          "name": "",
          "type": "uint256"
        }
      ],
      "name": "universityApprovalRequests",
      "outputs": [
        {
          "internalType": "bytes32",
          "name": "",
          "type": "bytes32"
        }
      ],
      "stateMutability": "view",
      "type": "function"
    },
    {
      "inputs": [
        {
          "internalType": "address",
          "name": "",
          "type": "address"
        },
        {
          "internalType": "address",
          "name": "",
          "type": "address"
        }
      ],
      "name": "universityApprovedVerifiers",
      "outputs": [
        {
          "internalType": "bool",
          "name": "",
          "type": "bool"
        }
      ],
      "stateMutability": "view",
      "type": "function"
    },
    {
      "inputs": [
        {
          "internalType": "address",
          "name": "",
          "type": "address"
        },
        {
          "internalType": "uint256",
          "name": "",
          "type": "uint256"
        }
      ],
      "name": "universityStudents",
      "outputs": [
        {
          "internalType": "address",
          "name": "",
          "type": "address"
        }
      ],
      "stateMutability": "view",
      "type": "function"
    },
    {
      "inputs": [
        {
          "internalType": "address",
          "name": "",
          "type": "address"
        },
        {
          "internalType": "uint256",
          "name": "",
          "type": "uint256"
        }
      ],
      "name": "universityVerifiersList",
      "outputs": [
        {
          "internalType": "address",
          "name": "",
          "type": "address"
        }
      ],
      "stateMutability": "view",
      "type": "function"
    },
    {
      "inputs": [
        {
          "internalType": "address",
          "name": "_studentAddress",
          "type": "address"
        },
        {
          "internalType": "string",
          "name": "_name",
          "type": "string"
        },
        {
          "internalType": "string",
          "name": "_email",
          "type": "string"
        },
        {
          "internalType": "string",
          "name": "_studentId",
          "type": "string"
        },
        {
          "internalType": "string",
          "name": "_branch",
          "type": "string"
        },
        {
          "internalType": "uint256",
          "name": "_yearOfJoining",
          "type": "uint256"
        }
      ],
      "name": "updateStudentDetails",
      "outputs": [],
      "stateMutability": "nonpayable",
      "type": "function"
    },
    {
      "inputs": [
        {
          "internalType": "string",
          "name": "_ipfsHash",
          "type": "string"
        }
      ],
      "name": "updateStudentProfile",
      "outputs": [],
      "stateMutability": "nonpayable",
      "type": "function"
    },
    {
      "inputs": [
        {
          "internalType": "string",
          "name": "_ipfsHash",
          "type": "string"
        }
      ],
      "name": "updateUniversityProfile",
      "outputs": [],
      "stateMutability": "nonpayable",
      "type": "function"
    },
    {
      "inputs": [
        {
          "internalType": "string",
          "name": "_ipfsHash",
          "type": "string"
        }
      ],
      "name": "updateVerifierProfile",
      "outputs": [],
      "stateMutability": "nonpayable",
      "type": "function"
    },
    {
      "inputs": [
        {
          "internalType": "address",
          "name": "_studentAddress",
          "type": "address"
        },
        {
          "internalType": "string",
          "name": "_ipfsHash",
          "type": "string"
        },
        {
          "internalType": "string",
          "name": "_semester",
          "type": "string"
        },
        {
          "internalType": "string",
          "name": "_academicYear",
          "type": "string"
        }
      ],
      "name": "uploadGradeSheet",
      "outputs": [],
      "stateMutability": "nonpayable",
      "type": "function"
    },
    {
      "inputs": [
        {
          "internalType": "string",
          "name": "_certificateHash",
          "type": "string"
        },
        {
          "internalType": "string",
          "name": "_certificateName",
          "type": "string"
        },
        {
          "internalType": "string",
          "name": "_metadata",
          "type": "string"
        }
      ],
      "name": "uploadNonAcademicCertificate",
      "outputs": [],
      "stateMutability": "nonpayable",
      "type": "function"
    },
    {
      "inputs": [
        {
          "internalType": "string",
          "name": "_certificateHash",
          "type": "string"
        },
        {
          "internalType": "string",
          "name": "_certificateName",
          "type": "string"
        },
        {
          "internalType": "string",
          "name": "_metadata",
          "type": "string"
        }
      ],
      "name": "uploadVerifiedNonAcademicCertificate",
      "outputs": [],
      "stateMutability": "nonpayable",
      "type": "function"
    },
    {
      "inputs": [
        {
          "internalType": "address",
          "name": "",
          "type": "address"
        },
        {
          "internalType": "uint256",
          "name": "",
          "type": "uint256"
        }
      ],
      "name": "verifierApprovalRequests",
      "outputs": [
        {
          "internalType": "bytes32",
          "name": "",
          "type": "bytes32"
        }
      ],
      "stateMutability": "view",
      "type": "function"
    },
    {
      "inputs": [
        {
          "internalType": "address",
          "name": "",
          "type": "address"
        },
        {
          "internalType": "uint256",
          "name": "",
          "type": "uint256"
        }
      ],
      "name": "verifierUniversitiesList",
      "outputs": [
        {
          "internalType": "address",
          "name": "",
          "type": "address"
        }
      ],
      "stateMutability": "view",
      "type": "function"
    },
    {
      "inputs": [
        {
          "internalType": "address",
          "name": "",
          "type": "address"
        }
      ],
      "name": "verifiers",
      "outputs": [
        {
          "internalType": "string",
          "name": "companyName",
          "type": "string"
        },
        {
          "internalType": "string",
          "name": "registrationNumber",
          "type": "string"
        },
        {
          "internalType": "string",
          "name": "contactEmail",
          "type": "string"
        },
        {
          "internalType": "address",
          "name": "walletAddress",
          "type": "address"
        },
        {
          "internalType": "bool",
          "name": "isActive",
          "type": "bool"
        },
        {
          "internalType": "uint256",
          "name": "registeredAt",
          "type": "uint256"
        },
        {
          "internalType": "string",
          "name": "ipfsHash",
          "type": "string"
        }
      ],
      "stateMutability": "view",
      "type": "function"
    }
  ],
  "bytecode": "0x608080604052346200007d573315620000675760008054336001600160a01b03198216811783556040519290916001600160a01b0316907f8be0079c531659141344cd1fd0a4f28419497f9722a3daafe3b4186f6b6457e09080a3619a019081620000838239f35b631e4fbdf760e01b815260006004820152602490fd5b600080fdfe608080604052600436101561001357600080fd5b60003560e01c90816303c6a8f61461811e575080630452a8e0146180f1578063053c8e25146180b257806305b7cc3614617fcc5780630b24714a14617f3e5780630f294a0114617e52578063117e864614617d7f57806315b6dd6614617a6a5780631a2c0f3814616d235780631b68dd0914616cda5780631eb98a7f1461661c5780632ce416f5146165d25780633ed27279146165985780633f7645631461601557806344b8735c14615c0e57806349b279ad14615bd45780634a38d86814615b595780634ab0c4a8146154f15780634df08a5b146153b557806350a3bd6414615241578063523181e6146151f95780635b8d1924146151af5780636c824487146151675780636cbc603e146150735780636dd80dc014614fa0578063715018a614614f59578063742f068814614da557806375c0211e14614d6b5780637aeddb7814614d425780637e860f8214614aea5780637eafb56a14614a99578063854ee8ee14614a5f578063860573a9146148f557806386520c5414614711578063886e4d70146146c95780638932949c146145d05780638b1318eb1461046a5780638da5cb5b146145a75780638f7eafe814613be057806393ae439014613ba6578063a0b872a4146138e5578063a63ccf2c146138ab578063a6c807a91461371f578063a8abe35e146136ad578063a8f691eb14613664578063abde05bc14612d34578063aecb4693146129d0578063af8d155514612960578063b440983e1461292f578063b4d21a89146128f5578063b8602ecd14612759578063ba3c6a08146126e7578063ba7d21c11461269b578063bf2f8c4814612651578063c1fc6adb146125de578063c24090f614612595578063c3934f0e1461254b578063c4d41a91146124f2578063c79930f2146124a8578063c7ee9b2f14612314578063cf56b3a61461219f578063cfc197b0146120ae578063d0d13aed14611fe4578063d2a1236b14611efb578063d407bc7a14611e80578063d64950e414611622578063d99fd86914610d4c578063dbb09b6914610c75578063e266703914610c24578063e6a852cc14610bdb578063e9e3092714610b6b578063ebc63bc014610b25578063ec0069a514610402578063f099556014610a69578063f2fde38b146109f5578063f333fe081461070b578063f45f0ca0146106c2578063f597d99414610642578063f5f81b86146104c0578063f8799b711461046a578063fa21174b146104025763fe4378db146103a557600080fd5b346103fd5760403660031901126103fd576103be618197565b6001600160a01b03166000908152600d60205260409020805460243591908210156103fd576020916103ef91618222565b90546040519160031b1c8152f35b600080fd5b346103fd5760203660031901126103fd576004356001600160401b0381116103fd576104346020913690600401618439565b8161044860405192838151938492016183b6565b600690820190815281900382019020546040516001600160a01b039091168152f35b346103fd5760403660031901126103fd57610483618197565b61048b6181ad565b9060018060a01b03809116600052600f60205260406000209116600052602052602060ff604060002054166040519015158152f35b346103fd5760403660031901126103fd576106106104dc6181ad565b6040516104e88161830a565b6000815261063760209260008484015260006040840152600060c060609485808201528560808201528560a0820152015260043560005260188452604060002060018060a01b038092166000528452604060002061062660405196879361054e8561830a565b80845416855280600185015416968886019788526002850154604087019081526040519261058a846105838160038b01618274565b0385618393565b8288019384526006604051976105ae896105a78160048501618274565b038a618393565b60808a0198895260a06040519a6105d38c6105cc8160058701618274565b038d618393565b01998a5201549960c08d019a8b528b826040519e8f9e8f525116908d0152511660408b015251908901525160e060808901526101008801906183d9565b915191601f1992838883030160a08901526183d9565b9151908583030160c08601526183d9565b905160e08301520390f35b346103fd5760003660031901126103fd57604051601a80548083526000918252602080840193926000805160206198ec83398151915292915b8282106106a25761069e8561069281890382618393565b604051918291826181c3565b0390f35b83546001600160a01b03168652948501946001938401939091019061067b565b346103fd5760203660031901126103fd57600435601b548110156103fd57601b6000526000805160206198ac83398151915201546040516001600160a01b039091168152602090f35b346103fd5760203660031901126103fd57600435606061018060405161073081618325565b8281528260208201526000604082015260008382015260006080820152600060a0820152600060c0820152600060e08201528261010082015282610120820152600061014082015282610160820152015280600052600560205261079b60ff604060002054166191be565b600052600460205260406000206040516107b481618325565b6040516107cc816107c58186618274565b0382618393565b81526040516107e2816107c58160018701618274565b60208201526002828101546001600160a01b03908116604084015260038401549081166060840152929060a084901c60ff1610156109df5760ff8360a01c166080830152600360ff8460a81c1610156109df576108cc600a9160ff61069e9560a81c1660a0850152600481015460c0850152600581015460e0850152604051610872816107c58160068601618274565b61010085015260405161088c816107c58160078601618274565b61012085015260ff60088201541615156101408501526040516108b6816107c58160098601618274565b6101608501526107c56040518094819301618274565b610180820152604051918291602083526101806109ca6109a661098e61091961090386516101a060208b01526101c08a01906183d9565b6020870151898203601f190160408b01526183d9565b60018060a01b03604087015116606089015260018060a01b03606087015116608089015261094f608087015160a08a01906185dd565b61096160a087015160c08a01906185ea565b60c086015160e089015260e0860151610100890152610100860151601f19898303016101208a01526183d9565b610120850151878203601f19016101408901526183d9565b6101408401511515610160870152610160840151601f1987830301848801526183d9565b910151838203601f19016101a08501526183d9565b634e487b7160e01b600052602160045260246000fd5b346103fd5760203660031901126103fd57610a0e618197565b610a166187bd565b6001600160a01b03908116908115610a50576000548260018060a01b03198216176000551660008051602061992c833981519152600080a3005b604051631e4fbdf760e01b815260006004820152602490fd5b346103fd5760203660031901126103fd576001600160a01b0380610a8b618197565b16600052600160205260406000209061069e600560405193610ab885610ab18184618274565b0386618393565b60405194610ad486610acd8160018601618274565b0387618393565b60405190610af082610ae98160028701618274565b0383618393565b600383015491610b0f600485015494610ab16040518098819301618274565b60405197889760ff8560a01c1694169288618576565b346103fd5760203660031901126103fd576001600160a01b03610b46618197565b16600052600760205261069e610b5f604060002061929f565b604051918291826183fe565b346103fd5760003660031901126103fd57604051601c805480835260009182526020808401939260008051602061982c83398151915292915b828210610bbb5761069e8561069281890382618393565b83546001600160a01b031686529485019460019384019390910190610ba4565b346103fd5760203660031901126103fd57600435601c548110156103fd57601c60005260008051602061982c83398151915201546040516001600160a01b039091168152602090f35b346103fd5760403660031901126103fd57610c3d618197565b610c456181ad565b9060018060a01b03809116600052600b6020526040600020911660005260205261069e610b5f604060002061929f565b346103fd5760403660031901126103fd57610c8e618197565b6024359033600052602060038152610cb060ff60086040600020015416618fd4565b610d1060018060a01b03809316928360005260028352610cdd60ff60036040600020015460a01c16618f81565b8460005260058352610cf660ff604060002054166191be565b8460005260048352339060026040600020015416146193ce565b33600052600b81526040600020826000528152610d31836040600020619198565b60008051602061988c833981519152604051914283523392a4005b346103fd57610d5a36618762565b919091336000526003602052610d7a60ff60086040600020015416618fd4565b6040516020810190610da081610d92423388876190c1565b03601f198101835282618393565b51902092836000526005602052610dbf60ff60406000205416156190f5565b60405192610dcc84618325565b8352602083015233604083015233606083015260016080830152600060a08301524260c0830152600060e0830152604051610e068161835d565b60008152610100830152604051610e1c8161835d565b600081526101208301526000610140830152610160820152604051610e408161835d565b60008152610180820152816000526004602052604060002091815192835160018060401b03811161124957610e75825461823a565b601f81116115de575b506020601f821160011461157557819293949560009261156a575b50508160011b916000199060031b1c19161781555b602083015180519093906001600160401b03811161124957610ed3600184015461823a565b601f8111611523575b506020601f82116001146114b45781929394956000926114a9575b50508160011b916000199060031b1c19161760018301555b6040810151600283810180546001600160a01b0319166001600160a01b03938416179055606083015160038501546080850151909391909116918110156109df576001600160a81b03199092161760a091821b60ff60a01b161760038481019190915590820151908110156109df57610f8b906003840161913e565b60c0810151600483015560e0810151600583015561010081015180519093906001600160401b03811161124957610fc5600685015461823a565b601f8111611462575b506020601f82116001146113f35781929394956000926113e8575b50508160011b916000199060031b1c19161760068401555b61012082015180519093906001600160401b03811161124957611027600783015461823a565b601f81116113a1575b506020601f8211600114611332578192939495600092611327575b50508160011b916000199060031b1c19161760078201555b611077610140840151151560088301618fc3565b6101608301518051906001600160401b0382116112495761109b600984015461823a565b601f81116112e0575b50602090601f831160011461126a5791806101809492600a9460009261125f575b50508160011b916000199060031b1c19161760098201555b0192015191825160018060401b038111611249576110fb825461823a565b601f8111611201575b506020601f821160011461119b5781929394600092611190575b50508160011b916000199060031b1c19161790555b8060005260056020526040600020600160ff19825416179055336000526007602052611163816040600020619198565b61116c81619162565b604051906001825242602083015260008051602061990c83398151915260403393a3005b01519050848061111e565b601f198216908360005260206000209160005b8181106111e9575095836001959697106111d0575b505050811b019055611133565b015160001960f88460031b161c191690558480806111c3565b9192602060018192868b0151815501940192016111ae565b826000526020600020601f830160051c8101916020841061123f575b601f0160051c01905b8181106112335750611104565b60008155600101611226565b909150819061121d565b634e487b7160e01b600052604160045260246000fd5b0151905087806110c5565b906009840160005260206000209160005b601f19851681106112c85750926101809492600192600a9583601f198116106112af575b505050811b0160098201556110dd565b015160001960f88460031b161c1916905587808061129f565b9192602060018192868501518155019401920161127b565b600984016000526020600020601f840160051c810160208510611320575b601f830160051c820181106113145750506110a4565b600081556001016112fe565b50806112fe565b01519050858061104b565b6007830160005260206000209060005b601f1984168110611389575060019394959683601f19811610611370575b505050811b016007820155611063565b015160001960f88460031b161c19169055858080611360565b9091602060018192858b015181550193019101611342565b600783016000526020600020601f830160051c8101602084106113e1575b601f830160051c820181106113d5575050611030565b600081556001016113bf565b50806113bf565b015190508580610fe9565b6006850160005260206000209060005b601f198416811061144a575060019394959683601f19811610611431575b505050811b016006840155611001565b015160001960f88460031b161c19169055858080611421565b9091602060018192858b015181550193019101611403565b600685016000526020600020601f830160051c8101602084106114a2575b601f830160051c82018110611496575050610fce565b60008155600101611480565b5080611480565b015190508580610ef7565b6001840160005260206000209060005b601f198416811061150b575060019394959683601f198116106114f2575b505050811b016001830155610f0f565b015160001960f88460031b161c191690558580806114e2565b9091602060018192858b0151815501930191016114c4565b600184016000526020600020601f830160051c810160208410611563575b601f830160051c82018110611557575050610edc565b60008155600101611541565b5080611541565b015190508580610e99565b8260005260206000209060005b601f19841681106115c6575060019394959683601f198116106115ad575b505050811b018155610eae565b015160001960f88460031b161c191690558580806115a0565b9091602060018192858b015181550193019101611582565b826000526020600020601f830160051c81016020841061161b575b601f830160051c8201811061160f575050610e7e565b600081556001016115f9565b50806115f9565b346103fd5761163036618762565b91909133600052600360205261165060ff60086040600020015416618fd4565b604051602081019061166881610d92423388876190c1565b5190209283600052600560205261168760ff60406000205416156190f5565b6040519261169484618325565b8352602083015233604083015233606083015260016080830152600160a08301524260c0830152600060e08301526040516116ce8161835d565b600081526101008301526040516116e48161835d565b6000815261012083015260006101408301526101608201526040516117088161835d565b60008152610180820152816000526004602052604060002091815192835160018060401b0381116112495761173d825461823a565b601f8111611e3c575b506020601f8211600114611dd3578192939495600092611dc8575b50508160011b916000199060031b1c19161781555b602083015180519093906001600160401b0381116112495761179b600184015461823a565b601f8111611d81575b506020601f8211600114611d12578192939495600092611d07575b50508160011b916000199060031b1c19161760018301555b6040810151600283810180546001600160a01b0319166001600160a01b03938416179055606083015160038501546080850151909391909116918110156109df576001600160a81b03199092161760a091821b60ff60a01b161760038481019190915590820151908110156109df57611853906003840161913e565b60c0810151600483015560e0810151600583015561010081015180519093906001600160401b0381116112495761188d600685015461823a565b601f8111611cc0575b506020601f8211600114611c51578192939495600092611c46575b50508160011b916000199060031b1c19161760068401555b61012082015180519093906001600160401b038111611249576118ef600783015461823a565b601f8111611bff575b506020601f8211600114611b90578192939495600092611b85575b50508160011b916000199060031b1c19161760078201555b61193f610140840151151560088301618fc3565b6101608301518051906001600160401b03821161124957611963600984015461823a565b601f8111611b3e575b50602090601f8311600114611ac85791806101809492600a94600092611abd575b50508160011b916000199060031b1c19161760098201555b0192015191825160018060401b038111611249576119c3825461823a565b601f8111611a75575b506020601f8211600114611a2957819293946000926111905750508160011b916000199060031b1c19161790558060005260056020526040600020600160ff19825416179055336000526007602052611163816040600020619198565b601f198216908360005260206000209160005b818110611a5d575095836001959697106111d057505050811b019055611133565b9192602060018192868b015181550194019201611a3c565b826000526020600020601f830160051c81019160208410611ab3575b601f0160051c01905b818110611aa757506119cc565b60008155600101611a9a565b9091508190611a91565b01519050878061198d565b906009840160005260206000209160005b601f1985168110611b265750926101809492600192600a9583601f19811610611b0d575b505050811b0160098201556119a5565b015160001960f88460031b161c19169055878080611afd565b91926020600181928685015181550194019201611ad9565b600984016000526020600020601f840160051c810160208510611b7e575b601f830160051c82018110611b7257505061196c565b60008155600101611b5c565b5080611b5c565b015190508580611913565b6007830160005260206000209060005b601f1984168110611be7575060019394959683601f19811610611bce575b505050811b01600782015561192b565b015160001960f88460031b161c19169055858080611bbe565b9091602060018192858b015181550193019101611ba0565b600783016000526020600020601f830160051c810160208410611c3f575b601f830160051c82018110611c335750506118f8565b60008155600101611c1d565b5080611c1d565b0151905085806118b1565b6006850160005260206000209060005b601f1984168110611ca8575060019394959683601f19811610611c8f575b505050811b0160068401556118c9565b015160001960f88460031b161c19169055858080611c7f565b9091602060018192858b015181550193019101611c61565b600685016000526020600020601f830160051c810160208410611d00575b601f830160051c82018110611cf4575050611896565b60008155600101611cde565b5080611cde565b0151905085806117bf565b6001840160005260206000209060005b601f1984168110611d69575060019394959683601f19811610611d50575b505050811b0160018301556117d7565b015160001960f88460031b161c19169055858080611d40565b9091602060018192858b015181550193019101611d22565b600184016000526020600020601f830160051c810160208410611dc1575b601f830160051c82018110611db55750506117a4565b60008155600101611d9f565b5080611d9f565b015190508580611761565b8260005260206000209060005b601f1984168110611e24575060019394959683601f19811610611e0b575b505050811b018155611776565b015160001960f88460031b161c19169055858080611dfe565b9091602060018192858b015181550193019101611de0565b826000526020600020601f830160051c810160208410611e79575b601f830160051c82018110611e6d575050611746565b60008155600101611e57565b5080611e57565b346103fd576020806003193601126103fd576001600160a01b0380611ea3618197565b1660005260118252604060002091604051809282855492838152019460005282600020926000915b838310611ee25761069e86610692818a0382618393565b8454811687529581019560019485019490920191611ecb565b346103fd57611fc560008051602061986c833981519152611fd9611fc0611f213661848f565b969291939060018060a01b03611f3c816000541633146187e9565b831697611f4a891515618840565b886000526001602052611f6b60ff60036040600020015460a01c161561887e565b60405191611f788361830a565b86835260208301526040820152876060820152600160808201524260a0820152604051611fa48161835d565b6000815260c082015287600052600160205260406000206188ca565b618d9f565b6040519182916040835260408301906183d9565b4260208301520390a2005b346103fd57611fc560008051602061994c833981519152611fd96120a961200a3661848f565b969291939060018060a01b03612025816000541633146187e9565b831697612033891515618840565b88600052600260205261205460ff60036040600020015460a01c1615618e91565b604051916120618361830a565b86835260208301526040820152876060820152600160808201524260a082015260405161208d8161835d565b6000815260c082015287600052600260205260406000206188ca565b618d4d565b346103fd576020806003193601126103fd576120c8618197565b9033600052600181526120e860ff60036040600020015460a01c16618e2c565b61216e60018060a01b03831692836000526002835261211460ff60036040600020015460a01c16618f81565b33600052600f8352604060002084600052835261213960ff60406000205416156192f0565b33600052600f835260406000208460005283526040600020600160ff1982541617905533600052601083526040600020618df1565b8160005260118152612184336040600020618df1565b60008051602061998c833981519152604051914283523392a3005b346103fd576121ad36618502565b33600052602090600282526121cf60ff60036040600020015460a01c16618edb565b60018060a01b03928381169384600052600384526121f760ff60086040600020015416619035565b846000526003845260056040600020015416600052600f8352604060002033600052835260ff60406000205416156122d25761228f9060405161224481610d92878201944290338761944a565b51902091604051906122558261830a565b3382528585830152604082015260006060820152600060808201524260a0820152600060c082015282600052600984526040600020619472565b82600052600a82526122a5816040600020619198565b7f4356e1da616288735d66ea050477c302e68434ddb38931d2dc3b9f0c55fde0ba604051924284523393a4005b60405162461bcd60e51b815260048101849052601a6024820152794e6f7420617070726f76656420627920756e697665727369747960301b6044820152606490fd5b346103fd5760403660031901126103fd576004357f2fb5b49479994124ee36a42b0f16b8d4373dee1e24e31b20b9ff81ea800fda6a6040612353618696565b3360005260206001815261237360ff600385600020015460a01c16618e2c565b600085815260128252839020600101546001600160a01b0390612399908216331461932f565b85600052601282526123be600385600020015460ff8116159081612499575b5061936e565b8560005260128252836000209083600014612468576003820160ff199060018282541617905533600052600f84528560002082845416600052845260018660002091825416179055336000526010835261241f856000208284541690618df1565b80825416600052601183526124373386600020618df1565b815416845142815260008051602061998c833981519152843392a35b600542910155825191151582524290820152a2005b6003820161010061ff001982541617905581541684514281526000805160206198cc833981519152843392a3612453565b60ff915060081c1615886123b8565b346103fd5760403660031901126103fd576124c1618197565b6001600160a01b03166000908152601460205260409020805460243591908210156103fd576020916103ef91618222565b346103fd5760403660031901126103fd5761250b618197565b6024359060018060a01b038091166000526010602052604060002080548310156103fd5760209261253b91618222565b9190546040519260031b1c168152f35b346103fd5760403660031901126103fd57612564618197565b6001600160a01b03166000908152600760205260409020805460243591908210156103fd576020916103ef91618222565b346103fd5760403660031901126103fd576125ae618197565b6024359060018060a01b038091166000526011602052604060002080548310156103fd5760209261253b91618222565b346103fd5760203660031901126103fd576004356000526009602052604060002060018060a01b0361069e8183541691600184015416916040519361262a85610ab18160028501618274565b6003810154600560048301549201549260405196879660ff808560081c169416928861871a565b346103fd5760403660031901126103fd5761266a618197565b6001600160a01b03166000908152601360205260409020805460243591908210156103fd576020916103ef91618222565b346103fd5760203660031901126103fd576004356000526012602052604060002060018060a01b0361069e8183541691600184015416916040519361262a85610ab18160028501618274565b346103fd5760203660031901126103fd57612700618197565b6000546001600160a01b03919061271a90831633146187e9565b1680600052600160205261273b60ff60036040600020015460a01c16618f3d565b6000908152600160205260409020600301805460ff60a01b19169055005b346103fd576020806003193601126103fd576001600160401b036004358181116103fd5761278b903690600401618439565b33600052600383526127a760ff60086040600020015416618fd4565b3360005260038352600a6040600020018151928311611249576127ca815461823a565b601f81116128af575b508392601f811160011461283c578060008051602061996c83398151915294600091612831575b508160011b916000199060031b1c19161790555b612823604051916040835260408301906183d9565b9242908201528033930390a2005b9050830151866127fa565b601f1981169382600052856000209460005b8782821061289957505094829160019360008051602061996c8339815191529710612880575b5050811b01905561280e565b85015160001960f88460031b161c191690558680612874565b838701518855600190970196928301920161284e565b8160005284600020601f850160051c8101918686106128eb575b601f0160051c01905b8181106128df57506127d3565b600081556001016128d2565b90915081906128c9565b346103fd5760203660031901126103fd576001600160a01b03612916618197565b16600052601360205261069e610b5f604060002061929f565b346103fd5760203660031901126103fd576004356000526005602052602060ff604060002054166040519015158152f35b346103fd5760003660031901126103fd57604051601b80548083526000918252602080840193926000805160206198ac83398151915292915b8282106129b05761069e8561069281890382618393565b83546001600160a01b031686529485019460019384019390910190612999565b346103fd5760003660031901126103fd57600080601654905b818110612bc157506129fa826186a5565b91612a086040519384618393565b808352612a17601f19916186a5565b0160209036828501376000805b838110612a39576040518061069e87826183fe565b612a4281618207565b9054600391821b1c60005260158452604060002060405190612a6382618325565b80546001600160a01b03168252604051612a84816107c58160018601618274565b86830152604051612a9c816107c58160028601618274565b6040830152604051612ab4816107c581878601618274565b6060830152604051612acd816107c58160048601618274565b6080830152604051612ae6816107c58160058601618274565b60a0830152604051612aff816107c58160068601618274565b60c0830152604051612b18816107c58160078601618274565b60e083015260405191600892612b34816107c581878701618274565b610100820152610180600b600984015460ff90818116159687156101208701521c1615938415610140850152600a810154610160850152015491015281612bb9575b50612b8b575b50612b8690619411565b612a24565b8192612bb291612b9d612b8694618207565b9054911b1c612bac8289619436565b52619411565b9190612b7c565b905087612b76565b612bca81618207565b9054600391821b1c600052602090601582526107c5612c4160406000209260405194612bf586618325565b84546001600160a01b0316865260405190612c1782610ae98160018a01618274565b860152604051612c2e816107c58160028901618274565b6040860152604051928380928601618274565b6060830152604051612c5a816107c58160048601618274565b6080830152604051612c73816107c58160058601618274565b60a0830152604051612c8c816107c58160068601618274565b60c0830152604051612ca5816107c58160078601618274565b60e083015260405191600892612cc1816107c581878701618274565b610100820152610180600b600984015460ff90818116159687156101208701521c1615938415610140850152600a810154610160850152015491015281612d2c575b50612d17575b612d1290619411565b6129e9565b91612d24612d1291619411565b929050612d09565b905084612d03565b346103fd57612d42366185f7565b9290959495336000526001602052612d6760ff60036040600020015460a01c16618e2c565b6001600160a01b038616600090815260036020526040902060080154612d8f9060ff16619035565b6001600160a01b03868116600090815260036020526040902060050154612db89116331461907a565b604051612dce81610d92428a8c602085016190c1565b6020815191012094856000526005602052612df160ff60406000205416156190f5565b60405197612dfe89618325565b8852602088015260018060a01b038616604088015233606088015260006080880152600160a08801524260c088015260e08701526101008601526101208501526000610140850152610160840152604051612e588161835d565b600081526101808401528060005260046020526040600020835180519060018060401b038211611249578190612e8e845461823a565b601f8111613614575b50602090601f83116001146135a85760009261359d575b50508160011b916000199060031b1c19161781555b60208401518051906001600160401b038211611249578190612ee8600185015461823a565b601f811161354a575b50602090601f83116001146134d8576000926134cd575b50508160011b916000199060031b1c19161760018201555b6040840151600282810180546001600160a01b0319166001600160a01b03938416179055606086015160038401546080880151909391909116918110156109df576001600160a81b03199092161760a091821b60ff60a01b161760038381019190915590850151908110156109df57612f9c906003830161913e565b60c0840151600482015560e084015160058201556101008401518051906001600160401b038211611249578190612fd6600685015461823a565b601f811161347a575b50602090601f8311600114613408576000926133fd575b50508160011b916000199060031b1c19161760068201555b6101208401518051906001600160401b038211611249578190613034600785015461823a565b601f81116133aa575b50602090601f83116001146133385760009261332d575b50508160011b916000199060031b1c19161760078201555b613080610140850151151560088301618fc3565b6101608401518051906001600160401b038211611249576130a4600984015461823a565b601f81116132e6575b50602090601f83116001146132725791806101809492600a94600092613267575b50508160011b916000199060031b1c19161760098201555b0193015192835160018060401b03811161124957613104825461823a565b601f811161321f575b50602094601f82116001146131b9579481929394956000926131ae575b50508160011b916000199060031b1c19161790555b8060005260056020526040600020600160ff1982541617905560018060a01b0382166000526007602052613177816040600020619198565b61318081619162565b60408051600081524260208201526001600160a01b039093169260008051602061990c8339815191529190a3005b01519050858061312a565b601f198216958360005260206000209160005b888110613207575083600195969798106131ee575b505050811b01905561313f565b015160001960f88460031b161c191690558580806131e1565b919260206001819286850151815501940192016131cc565b826000526020600020601f830160051c8101916020841061325d575b601f0160051c01905b818110613251575061310d565b60008155600101613244565b909150819061323b565b0151905088806130ce565b90601f198316916009850160005260206000209260005b8181106132ce5750926001928592600a966101809896106132b5575b505050811b0160098201556130e6565b015160001960f88460031b161c191690558880806132a5565b92936020600181928786015181550195019301613289565b600984016000526020600020601f840160051c810160208510613326575b601f830160051c8201811061331a5750506130ad565b60008155600101613304565b5080613304565b015190508680613054565b9250600784016000526020600020906000935b601f198416851061338f576001945083601f19811610613376575b505050811b01600782015561306c565b015160001960f88460031b161c19169055868080613366565b8181015183556020948501946001909301929091019061334b565b909150600784016000526020600020601f840160051c8101602085106133f6575b90849392915b601f830160051c820181106133e757505061303d565b600081558594506001016133d1565b50806133cb565b015190508680612ff6565b9250600684016000526020600020906000935b601f198416851061345f576001945083601f19811610613446575b505050811b01600682015561300e565b015160001960f88460031b161c19169055868080613436565b8181015183556020948501946001909301929091019061341b565b909150600684016000526020600020601f840160051c8101602085106134c6575b90849392915b601f830160051c820181106134b7575050612fdf565b600081558594506001016134a1565b508061349b565b015190508680612f08565b9250600184016000526020600020906000935b601f198416851061352f576001945083601f19811610613516575b505050811b016001820155612f20565b015160001960f88460031b161c19169055868080613506565b818101518355602094850194600190930192909101906134eb565b909150600184016000526020600020601f840160051c810160208510613596575b90849392915b601f830160051c82018110613587575050612ef1565b60008155859450600101613571565b508061356b565b015190508680612eae565b9250836000526020600020906000935b601f19841685106135f9576001945083601f198116106135e0575b505050811b018155612ec3565b015160001960f88460031b161c191690558680806135d3565b818101518355602094850194600190930192909101906135b8565b909150836000526020600020601f840160051c81016020851061365d575b90849392915b601f830160051c8201811061364e575050612e97565b60008155859450600101613638565b5080613632565b346103fd5760403660031901126103fd5761367d618197565b6024359060018060a01b038091166000526008602052604060002080548310156103fd5760209261253b91618222565b346103fd5760203660031901126103fd576136c6618197565b6000546001600160a01b0391906136e090831633146187e9565b1680600052600260205261370160ff60036040600020015460a01c16618f81565b6000908152600260205260409020600301805460ff60a01b19169055005b346103fd5760203660031901126103fd576001600160a01b0380613741618197565b1660005260036020526040600020604051908161375e8183618274565b036137699083618393565b604051928361377b8160018501618274565b036137869085618393565b604051806137978160028601618274565b036137a29082618393565b60405191826137b48160038701618274565b036137bf9084618393565b806004850154169060058501541690600685015460405192838060078901906137e791618274565b036137f29085618393565b600887015460ff169560098801549560405180600a819b019061381491618274565b0361381f908a618393565b6040519a8b9a610160808d528c01613836916183d9565b8b810360208d0152613847916183d9565b8a810360408c0152613858916183d9565b89810360608b0152613869916183d9565b92608089015260a088015260c087015285810360e087015261388a916183d9565b91151561010085015261012084015282810361014084015261069e916183d9565b346103fd5760203660031901126103fd576001600160a01b036138cc618197565b1660005260176020526020604060002054604051908152f35b346103fd5760803660031901126103fd57600435613901618696565b906001600160401b0390604480358381116103fd576139249036906004016186bc565b9060649384359081116103fd5761393f9036906004016186bc565b933360005260039160209383855260ff936139638560086040600020015416618fd4565b866000526009865260018060a01b039460019761398a33888b60406000200154161461932f565b80600052600988526139b0836040600020015483808216159182613b98575b505061936e565b60005260098752604060002099600014613b7b57898201805460ff191689179055879291906000845b613aa6575b505050506000905b6139fe575b505050505050505b600542910155600080f35b8651811015613aa157613a118188619436565b51600052600e855233846002604060002001541603613a6857613a629033600052600c86526040600020858a54166000528652613a5d6040600020613a56838b619436565b5190619198565b619411565b856139e6565b5073139bdd081e5bdd5c8819dc985919481cda19595d60621b84916040519262461bcd60e51b8452600484015260146024840152820152fd5b6139eb565b8351811015613b7657613b7090888d541680600052613b1d6002808d52613ad886886040600020015460a01c16618f81565b613ae28489619436565b5160005260058d52613afa86604060002054166191be565b613b048489619436565b5160005260048d528b33916040600020015416146193ce565b33600052600b8b526040600020906000528a52613b426040600020613a568388619436565b888d5416613b508287619436565b519060405142815260008051602061988c8339815191528d3392a4619411565b846139d9565b6139de565b508801805461ff001916610100179055506139f395505050505050565b60081c16159050838e6139a9565b346103fd5760203660031901126103fd576001600160a01b03613bc7618197565b1660005260196020526020604060002054604051908152f35b346103fd57613bee366185f7565b919392336000526001602052613c1160ff60036040600020015460a01c16618e2c565b613c256001600160a01b0388161515618840565b6001600160a01b03871660009081526003602052604090206008015460ff166145655784511561452c5760405193613c5c85618341565b8685526020850152604084015283606084015260018060a01b03861660808401523360a084015260c083015260e0820152600161010082015242610120820152604051613ca88161835d565b60008082526101408301919091526001600160a01b038516815260036020526040902081518051919291906001600160401b038211611249578190613ced855461823a565b601f81116144dc575b50602090601f831160011461447057600092614465575b50508160011b916000199060031b1c19161782555b60208101518051906001600160401b038211611249578190613d47600186015461823a565b601f8111614412575b50602090601f83116001146143a057600092614395575b50508160011b916000199060031b1c19161760018301555b60408101518051906001600160401b038211611249578190613da4600286015461823a565b601f8111614342575b50602090601f83116001146142d0576000926142c5575b50508160011b916000199060031b1c19161760028301555b60608101518051906001600160401b038211611249578190613e01600386015461823a565b601f8111614272575b50602090601f8311600114614200576000926141f5575b50508160011b916000199060031b1c19161760038301555b60808101516004830180546001600160a01b039283166001600160a01b03199182161790915560a083015160058501805491909316911617905560c0810151600683015560e08101518051906001600160401b03821161124957613ea0600785015461823a565b601f81116141ae575b50602090601f831160011461413a576101409392916000918361412f575b50508160011b916000199060031b1c19161760078401555b613ef3610100820151151560088501618fc3565b610120810151600984015501518051906001600160401b03821161124957613f1e600a84015461823a565b601f81116140e8575b50602090601f83116001146140715782613f74959360209593600a93600092614066575b50508160011b916000199060031b1c1916179101555b81604051938285809451938492016183b6565b60069082019081520301902080546001600160a01b0319166001600160a01b038416179055336000908152600860205260409020613fb3908390618df1565b601c54600160401b811015611249576001810180601c5581101561405057601c60005260008051602061982c8339815191520180546001600160a01b0319166001600160a01b03841617905560408051818152917f3c4550d33e6c62fbd8314480ae1ad6b42cc9d8e04e0932236798f427259c682f9161403691908401906183d9565b42602084015233936001600160a01b0316929081900390a3005b634e487b7160e01b600052603260045260246000fd5b015190508980613f4b565b90600a840160005260206000209160005b601f19851681106140d057508360209593600a93600193613f749997601f198116106140b7575b505050811b01910155613f61565b015160001960f88460031b161c191690558980806140a9565b91926020600181928685015181550194019201614082565b600a84016000526020600020601f840160051c810160208510614128575b601f830160051c8201811061411c575050613f27565b60008155600101614106565b5080614106565b015190508880613ec7565b906007850160005260206000209160005b601f198516811061419657509183916001936101409695601f1981161061417d575b505050811b016007840155613edf565b015160001960f88460031b161c1916905588808061416d565b9192602060018192868501518155019401920161414b565b600785016000526020600020601f840160051c8101602085106141ee575b601f830160051c820181106141e2575050613ea9565b600081556001016141cc565b50806141cc565b015190508780613e21565b9250600385016000526020600020906000935b601f1984168510614257576001945083601f1981161061423e575b505050811b016003830155613e39565b015160001960f88460031b161c1916905587808061422e565b81810151835560209485019460019093019290910190614213565b909150600385016000526020600020601f840160051c8101602085106142be575b90849392915b601f830160051c820181106142af575050613e0a565b60008155859450600101614299565b5080614293565b015190508780613dc4565b9250600285016000526020600020906000935b601f1984168510614327576001945083601f1981161061430e575b505050811b016002830155613ddc565b015160001960f88460031b161c191690558780806142fe565b818101518355602094850194600190930192909101906142e3565b909150600285016000526020600020601f840160051c81016020851061438e575b90849392915b601f830160051c8201811061437f575050613dad565b60008155859450600101614369565b5080614363565b015190508780613d67565b9250600185016000526020600020906000935b601f19841685106143f7576001945083601f198116106143de575b505050811b016001830155613d7f565b015160001960f88460031b161c191690558780806143ce565b818101518355602094850194600190930192909101906143b3565b909150600185016000526020600020601f840160051c81016020851061445e575b90849392915b601f830160051c8201811061444f575050613d50565b60008155859450600101614439565b5080614433565b015190508780613d0d565b9250846000526020600020906000935b601f19841685106144c1576001945083601f198116106144a8575b505050811b018255613d22565b015160001960f88460031b161c1916905587808061449b565b81810151835560209485019460019093019290910190614480565b909150846000526020600020601f840160051c810160208510614525575b90849392915b601f830160051c82018110614516575050613cf6565b60008155859450600101614500565b50806144fa565b60405162461bcd60e51b81526020600482015260116024820152701054105054881251081c995c5d5a5c9959607a1b6044820152606490fd5b60405162461bcd60e51b815260206004820152601a60248201527914dd1d59195b9d08185b1c9958591e481c9959da5cdd195c995960321b6044820152606490fd5b346103fd5760003660031901126103fd576000546040516001600160a01b039091168152602090f35b346103fd576020806003193601126103fd5760043590336000526001815261460560ff60036040600020015460a01c16618e2c565b816000526005815261461e60ff604060002054166191be565b8160005260048152604060002090600382019081549260ff8460a01c1660028110156109df5761467c91614656600160029314619207565b01546001600160a01b03908116600090815260038452604090206005015416331461907a565b60ff8360a81c169160038310156109df576000805160206199ac833981519152936146a960409415619253565b60ff60a81b1916600160a91b1790558151600281524291810191909152a2005b346103fd576146d736618541565b9160018060a01b03809116600052600c60205260406000209116600052602052604060002080548210156103fd576020916103ef91618222565b346103fd5760203660031901126103fd576004356000908152601560205260409081902080549151916001600160a01b031690826147528160018401618274565b0361475d9084618393565b6040518061476e8160028501618274565b036147799082618393565b604051918261478b8160038401618274565b036147969084618393565b604051806147a78160048501618274565b036147b29082618393565b604051806147c38160058601618274565b036147ce9082618393565b604051806147df8160068701618274565b036147ea9082618393565b60405191826147fc8160078801618274565b036148079084618393565b60405193846148198160088901618274565b036148249086618393565b600986015497600a87015496600b0154976040519b8c9b8c528b6101a06020819201528c01614852916183d9565b8b810360408d0152614863916183d9565b8a810360608c0152614874916183d9565b89810360808b0152614885916183d9565b88810360a08a0152614896916183d9565b87810360c08901526148a7916183d9565b86810360e08801526148b8916183d9565b8581036101008701526148ca916183d9565b9260ff8116151561012086015260081c60ff1615156101408501526101608401526101808301520390f35b346103fd576020806003193601126103fd576001600160401b036004358181116103fd57614927903690600401618439565b336000526002835261494660ff60036040600020015460a01c16618edb565b33600052600283526005604060002001815192831161124957614969815461823a565b601f8111614a19575b508392601f81116001146149c0578060008051602061996c8339815191529460009161283157508160011b916000199060031b1c1916179055612823604051916040835260408301906183d9565b601f1981169382600052856000209460005b87828210614a0357505094829160019360008051602061996c8339815191529710612880575050811b01905561280e565b83870151885560019097019692830192016149d2565b8160005284600020601f850160051c810191868610614a55575b601f0160051c01905b818110614a495750614972565b60008155600101614a3c565b9091508190614a33565b346103fd5760203660031901126103fd576001600160a01b03614a80618197565b16600052601460205261069e610b5f604060002061929f565b346103fd5760403660031901126103fd57614ab2618197565b614aba6181ad565b9060018060a01b03809116600052600c6020526040600020911660005260205261069e610b5f604060002061929f565b346103fd576020806003193601126103fd576004356001600160401b0381116103fd57614b1b903690600401618439565b81614b2f60405192838151938492016183b6565b600690820190815281900382019020546001600160a01b039081168015614d09576000526003825260406000206040518092614b6a82618341565b60405180614b788186618274565b03614b839082618393565b825260405180614b968160018701618274565b03614ba19082618393565b8286019081526040519182614bb98160028801618274565b03614bc49084618393565b6040848101938452519283614bdc8160038901618274565b03614be79085618393565b60608501938452816004870154169360808601948552826005880154169160a0870192835260068801549460c0880195865260405194858060078c0190614c2d91618274565b03614c389087618393565b60e089019586528060088b015460ff16986101009b8c8c019a15158b526009810154610120809d01528d60405180600a81940190614c7591618274565b03614c809083618393565b610140015251169a51915192519351945116955194519651151597806040519c8d9c8d528c01528a01614cb2916183d9565b89810360408b0152614cc3916183d9565b88810360608a0152614cd4916183d9565b8781036080890152614ce5916183d9565b9160a087015260c086015284810360e0860152614d01916183d9565b918301520390f35b60405162461bcd60e51b815260048101849052601160248201527014dd1d59195b9d081b9bdd08199bdd5b99607a1b6044820152606490fd5b346103fd5760203660031901126103fd576004356016548110156103fd576103ef602091618207565b346103fd5760203660031901126103fd576001600160a01b03614d8c618197565b16600052601960205261069e610b5f604060002061929f565b346103fd5760203660031901126103fd576004356000526004602052604060002060405180614dd48184618274565b03614ddf9082618393565b6040519182614df18160018401618274565b03614dfc9084618393565b60028101546003820154600483015460058401546040516001600160a01b039490919085169082614e308160068a01618274565b03614e3b9084618393565b6040519384614e4d8160078b01618274565b03614e589086618393565b600888015460ff169560405197888060098c0190614e7591618274565b03614e80908a618393565b60405180600a819c0190614e9391618274565b03614e9e908b618393565b6040519b8c9b8c6101a08091528d01614eb6916183d9565b8c810360208e0152614ec7916183d9565b9460408c0152811660608b015260808a018160a01c60ff1690614ee9916185dd565b60a08a019060a81c60ff1690614efe916185ea565b60c089015260e0880152868103610100880152614f1a916183d9565b858103610120870152614f2c916183d9565b901515610140850152838103610160850152614f47916183d9565b82810361018084015261069e916183d9565b346103fd5760003660031901126103fd57614f726187bd565b600080546001600160a01b0319811682556001600160a01b031660008051602061992c8339815191528280a3005b346103fd576020806003193601126103fd57614fba618197565b903360005260018152614fda60ff60036040600020015460a01c16618e2c565b336000908152600f825260408082206001600160a01b0390941680835293835290205460ff16156150405733600052600f81526040600020826000528152604060002060ff1981541690556000805160206198cc833981519152604051914283523392a3005b6064906040519062461bcd60e51b82526004820152600c60248201526b139bdd08185c1c1c9bdd995960a21b6044820152fd5b346103fd5760403660031901126103fd5761508c6181ad565b6004356000526018602052604060002060018060a01b0380921660005260205260406000209080825416906001830154169161515d60028201549161514f6040516150de816107c58160038701618274565b615141604051916150fd836150f68160048901618274565b0384618393565b60066040519561511b876151148160058501618274565b0388618393565b015496604051998a998a5260208a0152604089015260e0606089015260e08801906183d9565b9086820360808801526183d9565b9084820360a08601526183d9565b9060c08301520390f35b346103fd5760203660031901126103fd576001600160a01b0380615189618197565b16600052600260205260406000209061069e600560405193610ab885610ab18184618274565b346103fd5760403660031901126103fd576151c8618197565b6001600160a01b03166000908152601960205260409020805460243591908210156103fd576020916103ef91618222565b346103fd5761520736618541565b9160018060a01b03809116600052600b60205260406000209116600052602052604060002080548210156103fd576020916103ef91618222565b346103fd576020806003193601126103fd576001600160401b036004358181116103fd57615273903690600401618439565b3360005260019182845261529460ff60036040600020015460a01c16618e2c565b336000528284526005604060002001908251908111611249576152b7825461823a565b601f811161536c575b508493601f82116001146153195781809160008051602061996c8339815191529660009361530e575b501b916000199060031b1c1916179055612823604051916040835260408301906183d9565b8601519250886152e9565b90601f1981169483600052866000209060005b888882106153585750508260008051602061996c8339815191529710612880575050811b01905561280e565b87830151845592850192918201910161532c565b8260005285600020601f830160051c8101918784106153ab575b601f0160051c019085905b82811061539f5750506152c0565b60008155018590615391565b9091508190615386565b346103fd576153c336618502565b33600052602090600282526153e560ff60036040600020015460a01c16618edb565b61549860018060a01b03841693846000526001845261541160ff60036040600020015460a01c16618f3d565b84600052600f8452604060002033600052845261543660ff60406000205416156192f0565b60405161544d81610d92878201944290338761944a565b519020916040519061545e8261830a565b3382528585830152604082015260006060820152600060808201524260a0820152600060c082015282600052601284526040600020619472565b82600052601382526154ae816040600020619198565b33600052601482526154c4816040600020619198565b7f0521cf0e171dc9a8e53b759af7696db15b17bd2edc624f956235722475c66a98604051924284523393a4005b346103fd5760c03660031901126103fd5761550a618197565b6024356001600160401b0381116103fd57615529903690600401618439565b6044356001600160401b0381116103fd57615548903690600401618439565b916064356001600160401b0381116103fd57615568903690600401618439565b926084356001600160401b0381116103fd57615588903690600401618439565b923360005260016020526155a960ff60036040600020015460a01c16618e2c565b6155bd6001600160a01b0384161515618840565b6001600160a01b0383166000908152600360205260409020600801546155e59060ff16619035565b6001600160a01b0383811660009081526003602052604090206005015433911603615b21576001600160a01b0383166000908152600360205260409020815190916001600160401b038211611249578190615640845461823a565b601f8111615ad1575b50602090601f8311600114615a6557600092615a5a575b50508160011b916000199060031b1c19161790555b6001600160a01b038216600090815260036020526040902081516001909101916001600160401b0382116112495781906156af845461823a565b601f8111615a0a575b50602090601f831160011461599e57600092615993575b50508160011b916000199060031b1c19161790555b6001600160a01b038116600090815260036020526040902083516002909101906001600160401b0381116112495761571c825461823a565b601f811161594f575b50602094601f82116001146158e9579481929394956000926158de575b50508160011b916000199060031b1c19161790555b6001600160a01b038116600090815260036020526040902082516007909101906001600160401b0381116112495761578f825461823a565b601f8111615896575b506020601f82116001146158305781929394600092615825575b50508160011b916000199060031b1c19161790555b60018060a01b038116600052600360205260008051602061996c83398151915261580e604060002060a435600682015560405191829160408352600a604084019101618274565b4260208301526001600160a01b03909416930390a2005b0151905084806157b2565b601f198216908360005260206000209160005b81811061587e57509583600195969710615865575b505050811b0190556157c7565b015160001960f88460031b161c19169055848080615858565b9192602060018192868b015181550194019201615843565b826000526020600020601f830160051c810191602084106158d4575b601f0160051c01905b8181106158c85750615798565b600081556001016158bb565b90915081906158b2565b015190508580615742565b601f198216958360005260206000209160005b8881106159375750836001959697981061591e575b505050811b019055615757565b015160001960f88460031b161c19169055858080615911565b919260206001819286850151815501940192016158fc565b826000526020600020601f830160051c81016020841061598c575b601f830160051c82018110615980575050615725565b6000815560010161596a565b508061596a565b0151905086806156cf565b9250836000526020600020906000935b601f19841685106159ef576001945083601f198116106159d6575b505050811b0190556156e4565b015160001960f88460031b161c191690558680806159c9565b818101518355602094850194600190930192909101906159ae565b909150836000526020600020601f840160051c810160208510615a53575b90849392915b601f830160051c82018110615a445750506156b8565b60008155859450600101615a2e565b5080615a28565b015190508780615660565b9250836000526020600020906000935b601f1984168510615ab6576001945083601f19811610615a9d575b505050811b019055615675565b015160001960f88460031b161c19169055878080615a90565b81810151835560209485019460019093019290910190615a75565b909150836000526020600020601f840160051c810160208510615b1a575b90849392915b601f830160051c82018110615b0b575050615649565b60008155859450600101615af5565b5080615aef565b60405162461bcd60e51b815260206004820152601060248201526f139bdd081e5bdd5c881cdd1d59195b9d60821b6044820152606490fd5b346103fd576020806003193601126103fd576001600160a01b0380615b7c618197565b1660005260088252604060002091604051809282855492838152019460005282600020926000915b838310615bbb5761069e86610692818a0382618393565b8454811687529581019560019485019490920191615ba4565b346103fd5760203660031901126103fd576001600160a01b03615bf5618197565b16600052600a60205261069e610b5f604060002061929f565b346103fd576060806003193601126103fd57615c28618197565b906024356044356001600160401b0381116103fd5790615c4d84923690600401618439565b6001600160a01b039283166000908152600860208181526040808420905181548082529185528285209098959394899283850192915b818110615ffc5750505090615c99910388618393565b60009460009481158015965b8a51811015615e235789615cb9828d619436565b51166000528787858c600a6101408a6003938482526107c5615d3a604060002096600160405195615ce987618341565b604051615cfa816107c5818e618274565b8752615d108a610ae96040518095819301618274565b860152604051615d27816107c58160028d01618274565b6040860152604051928380928a01618274565b8b83015280600486015416608083015260058501541660a0820152615db160068501549460c0830195865260ff60405198615d838a615d7c8160078701618274565b038b618393565b60e08501998a5282015416151561010084015260098101546101208401526150f66040518096819301618274565b01528593615e18575b505087518015918215615e01575b505081615df9575b50615de4575b615ddf90619411565b615ca5565b97615df1615ddf91619411565b989050615dd6565b90508c615dd0565b909150518781519101209087890120148d80615dc8565b51149150858e615dba565b509488948a92948994615e35866186a5565b95615e436040519788618393565b808752615e52601f19916186a5565b01368388013760009660005b8651811015615fee578b86848c8e81615e77878e619436565b5116600052600a6101408a6003948582526107c5615ef4604060002097600160405195615ea387618341565b604051615eb4816107c5818f618274565b8752615eca8b610ae96040518095819301618274565b860152604051615ee1816107c58160028e01618274565b6040860152604051928380928b01618274565b8b83015280600487015416608083015260058601541660a0820152615f6b60068601549560c0830196875260ff60405199615f3d8b615f368160078701618274565b038c618393565b60e085019a8b5282015416151561010084015260098101546101208401526150f66040518096819301618274565b015293615fe3575b505086518015918215615fcc575b505081615fc4575b50615f9d575b615f9890619411565b615e5e565b97615fbc615f98918b615fb08c8b619436565b5116612bac828c619436565b989050615f8f565b90508d615f89565b909150518681519101209086880120148e80615f81565b51149150848f615f73565b6040518061069e8a826181c3565b82548b1684528b94509285019260019283019201615c83565b346103fd576160233661848f565b91909133600052600160205261604660ff60036040600020015460a01c16618e2c565b6001600160a01b03841660009081526003602052604090206008015461606e9060ff16619035565b6001600160a01b038481166000908152600360205260409020600501546160979116331461907a565b81511561655e5760405160208101906160b681610d92428988876190c1565b519020604051909390926001600160401b0361010085019081119085111761124957610100840160405260008452602084015260018060a01b038516604084015233606084015242608084015260a083015260c0820152600160e082015281600052600e60205260406000209080518255602081015180519060018060401b03821161124957819061614b600186015461823a565b601f811161650b575b50602090601f83116001146164995760009261648e575b50508160011b916000199060031b1c19161760018301555b60408101516002830180546001600160a01b039283166001600160a01b03199182161790915560608301516003850180549190931691161790556080810151600483015560a08101518051906001600160401b0382116112495781906161ec600586015461823a565b601f811161643b575b50602090601f83116001146163c9576000926163be575b50508160011b916000199060031b1c19161760058301555b60c08101518051906001600160401b03821161124957616247600685015461823a565b601f8111616373575b50602090601f83116001146162fc57928260079360e09361629797966000926162f1575b50508160011b916000199060031b1c19161760068501555b015115159101618fc3565b60018060a01b038216600052600d6020526162b6816040600020619198565b60405142815233926001600160a01b031691907f9ce6c13ecbd75c9fa4574da420c218119fc8a26f03419eea35d7899dee3d6fd690602090a4005b015190508980616274565b90601f198316916006860160005260206000209260005b81811061635b57509360e0936162979796936001938360079810616342575b505050811b01600685015561628c565b015160001960f88460031b161c19169055898080616332565b92936020600181928786015181550195019301616313565b600685016000526020600020601f840160051c810191602085106163b4575b601f0160051c01905b8181106163a85750616250565b6000815560010161639b565b9091508190616392565b01519050868061620c565b9250600585016000526020600020906000935b601f1984168510616420576001945083601f19811610616407575b505050811b016005830155616224565b015160001960f88460031b161c191690558680806163f7565b818101518355602094850194600190930192909101906163dc565b909150600585016000526020600020601f840160051c810160208510616487575b90849392915b601f830160051c820181106164785750506161f5565b60008155859450600101616462565b508061645c565b01519050868061616b565b9250600185016000526020600020906000935b601f19841685106164f0576001945083601f198116106164d7575b505050811b016001830155616183565b015160001960f88460031b161c191690558680806164c7565b818101518355602094850194600190930192909101906164ac565b909150600185016000526020600020601f840160051c810160208510616557575b90849392915b601f830160051c82018110616548575050616154565b60008155859450600101616532565b508061652c565b60405162461bcd60e51b815260206004820152601260248201527112541194c81a185cda081c995c5d5a5c995960721b6044820152606490fd5b346103fd5760203660031901126103fd576001600160a01b036165b9618197565b16600052600d60205261069e610b5f604060002061929f565b346103fd5760403660031901126103fd576165eb618197565b6001600160a01b03166000908152600a60205260409020805460243591908210156103fd576020916103ef91618222565b346103fd5760a03660031901126103fd576166356181ad565b6044356001600160401b0381116103fd57616654903690600401618439565b6064356001600160401b0381116103fd57616673903690600401618439565b906084356001600160401b0381116103fd57616693903690600401618439565b33600052600260205260ff60036040600020015460a01c1615616c82576001600160a01b03841660009081526003602052604090206008015460ff1615616c4457825160208401908120600860206040516166ed81618378565b82815201671d995c9a599a595960c21b81522014908115616c0b575b5015616bd5576040519061671c8261830a565b338083526001600160a01b038681166020808601918252600435604080880182815260608901998a52608089018b905260a08901979097524260c08901526000918252601883528082209582529490915292909220845181549083166001600160a01b031991821617825592516001820180549190931693169290921790559051600282015591518051906001600160401b0382116112495781906167c4600386015461823a565b601f8111616b82575b50602090601f8311600114616b1057600092616b05575b50508160011b916000199060031b1c19161760038301555b60808101518051906001600160401b038211611249578190616821600486015461823a565b601f8111616ab2575b50602090601f8311600114616a4057600092616a35575b50508160011b916000199060031b1c19161760048301555b60a08101518051906001600160401b0382116112495761687c600585015461823a565b601f81116169ee575b50602090601f83116001146169795791806006949260c09460009261696e575b50508160011b916000199060031b1c19161760058501555b01519101556040516020810160043581523360601b604083015242605483015260548252608082019180831060018060401b038411176112495761691c9260405251902060018060a01b03841660005260196020526040600020619198565b616931604051916040835260408301906183d9565b9142602083015260018060a01b0316917fd69f33b7df3e788a921cd75ca7023c3bd60e7493ae82c2177edbd80d28b7e9e5339280600435930390a4005b0151905088806168a5565b906005850160005260206000209160005b601f19851681106169d65750926006949260019260c09583601f198116106169bd575b505050811b0160058501556168bd565b015160001960f88460031b161c191690558880806169ad565b9192602060018192868501518155019401920161698a565b600585016000526020600020601f840160051c810160208510616a2e575b601f830160051c82018110616a22575050616885565b60008155600101616a0c565b5080616a0c565b015190508680616841565b9250600485016000526020600020906000935b601f1984168510616a97576001945083601f19811610616a7e575b505050811b016004830155616859565b015160001960f88460031b161c19169055868080616a6e565b81810151835560209485019460019093019290910190616a53565b909150600485016000526020600020601f840160051c810160208510616afe575b90849392915b601f830160051c82018110616aef57505061682a565b60008155859450600101616ad9565b5080616ad3565b0151905086806167e4565b9250600385016000526020600020906000935b601f1984168510616b67576001945083601f19811610616b4e575b505050811b0160038301556167fc565b015160001960f88460031b161c19169055868080616b3e565b81810151835560209485019460019093019290910190616b23565b909150600385016000526020600020601f840160051c810160208510616bce575b90849392915b601f830160051c82018110616bbf5750506167cd565b60008155859450600101616ba9565b5080616ba3565b60405162461bcd60e51b815260206004820152600e60248201526d496e76616c69642073746174757360901b6044820152606490fd5b90508351902060116020604051616c2181618378565b82815201706e6565644d6f7265446f63756d656e747360781b8152201485616709565b60405162461bcd60e51b815260206004820152601660248201527553747564656e74206d7573742062652061637469766560501b6044820152606490fd5b60405162461bcd60e51b815260206004820152602a60248201527f4f6e6c7920616374697665207665726966696572732063616e2076657269667960448201526920646f63756d656e747360b01b6064820152608490fd5b346103fd5760203660031901126103fd57600435601a548110156103fd57601a6000526000805160206198ec83398151915201546040516001600160a01b039091168152602090f35b346103fd576101003660031901126103fd576004356001600160401b0381116103fd57616d54903690600401618439565b6024356001600160401b0381116103fd57616d73903690600401618439565b6044356001600160401b0381116103fd57616d92903690600401618439565b906064356001600160401b0381116103fd57616db2903690600401618439565b6084356001600160401b0381116103fd57616dd1903690600401618439565b60a4356001600160401b0381116103fd57616df0903690600401618439565b60c4356001600160401b0381116103fd57616e0f903690600401618439565b9160e4356001600160401b0381116103fd57616e2f903690600401618439565b9387516020890120616e3f619607565b60208151910120148015617a4d575b15617a12573360005260176020526040600020546179d15733600052600160205260ff60036040600020015460a01c1615806179b6575b1561797c5760405160208101903360601b8252616ec96054828c616eb38151809260206034860191016183b6565b8101426034820152036034810184520182618393565b5190209660405196616eda88618325565b33885289602089015260408801526060870152608086015260a085015260c084015260e08301526101008201526000610120820152600061014082015242610160820152600061018082015281600052601560205260406000209060018060a01b0381511660018060a01b0319835416178255602081015180519060018060401b038211611249578190616f71600186015461823a565b601f8111617929575b50602090601f83116001146178b7576000926178ac575b50508160011b916000199060031b1c19161760018301555b60408101518051906001600160401b038211611249578190616fce600286015461823a565b601f8111617859575b50602090601f83116001146177e7576000926177dc575b50508160011b916000199060031b1c19161760028301555b60608101518051906001600160401b03821161124957819061702b600386015461823a565b601f8111617789575b50602090601f83116001146177175760009261770c575b50508160011b916000199060031b1c19161760038301555b60808101518051906001600160401b038211611249578190617088600486015461823a565b601f81116176b9575b50602090601f83116001146176475760009261763c575b50508160011b916000199060031b1c19161760048301555b60a08101518051906001600160401b0382116112495781906170e5600586015461823a565b601f81116175e9575b50602090601f83116001146175775760009261756c575b50508160011b916000199060031b1c19161760058301555b60c08101518051906001600160401b038211611249578190617142600686015461823a565b601f8111617519575b50602090601f83116001146174a75760009261749c575b50508160011b916000199060031b1c19161760068301555b60e08101518051906001600160401b03821161124957819061719f600786015461823a565b601f8111617449575b50602090601f83116001146173d7576000926173cc575b50508160011b916000199060031b1c19161760078301555b6101008101518051906001600160401b038211611249576171fb600885015461823a565b601f8111617385575b50602090601f831160011461730f579180600b949261018094600092617304575b50508160011b916000199060031b1c19161760088501555b61726360098501617255610120840151151582618fc3565b6101408301511515906193b6565b610160810151600a8501550151910155601654600160401b811015611249576172ad617296826001859401601655618207565b819391549060031b91821b91600019901b19161790565b9055336000526017602052806040600020557f08c453dc94970d52ae6ce84de01b1fc3ddc87cbac4257755ec6b977b5e565f316172f5604051936040855260408501906183d9565b924260208201528033940390a3005b015190508880617225565b906008850160005260206000209160005b601f198516811061736d575092600b94926001926101809583601f19811610617354575b505050811b01600885015561723d565b015160001960f88460031b161c19169055888080617344565b91926020600181928685015181550194019201617320565b600885016000526020600020601f840160051c8101602085106173c5575b601f830160051c820181106173b9575050617204565b600081556001016173a3565b50806173a3565b0151905086806171bf565b9250600785016000526020600020906000935b601f198416851061742e576001945083601f19811610617415575b505050811b0160078301556171d7565b015160001960f88460031b161c19169055868080617405565b818101518355602094850194600190930192909101906173ea565b909150600785016000526020600020601f840160051c810160208510617495575b90849392915b601f830160051c820181106174865750506171a8565b60008155859450600101617470565b508061746a565b015190508680617162565b9250600685016000526020600020906000935b601f19841685106174fe576001945083601f198116106174e5575b505050811b01600683015561717a565b015160001960f88460031b161c191690558680806174d5565b818101518355602094850194600190930192909101906174ba565b909150600685016000526020600020601f840160051c810160208510617565575b90849392915b601f830160051c8201811061755657505061714b565b60008155859450600101617540565b508061753a565b015190508680617105565b9250600585016000526020600020906000935b601f19841685106175ce576001945083601f198116106175b5575b505050811b01600583015561711d565b015160001960f88460031b161c191690558680806175a5565b8181015183556020948501946001909301929091019061758a565b909150600585016000526020600020601f840160051c810160208510617635575b90849392915b601f830160051c820181106176265750506170ee565b60008155859450600101617610565b508061760a565b0151905086806170a8565b9250600485016000526020600020906000935b601f198416851061769e576001945083601f19811610617685575b505050811b0160048301556170c0565b015160001960f88460031b161c19169055868080617675565b8181015183556020948501946001909301929091019061765a565b909150600485016000526020600020601f840160051c810160208510617705575b90849392915b601f830160051c820181106176f6575050617091565b600081558594506001016176e0565b50806176da565b01519050868061704b565b9250600385016000526020600020906000935b601f198416851061776e576001945083601f19811610617755575b505050811b016003830155617063565b015160001960f88460031b161c19169055868080617745565b8181015183556020948501946001909301929091019061772a565b909150600385016000526020600020601f840160051c8101602085106177d5575b90849392915b601f830160051c820181106177c6575050617034565b600081558594506001016177b0565b50806177aa565b015190508680616fee565b9250600285016000526020600020906000935b601f198416851061783e576001945083601f19811610617825575b505050811b016002830155617006565b015160001960f88460031b161c19169055868080617815565b818101518355602094850194600190930192909101906177fa565b909150600285016000526020600020601f840160051c8101602085106178a5575b90849392915b601f830160051c82018110617896575050616fd7565b60008155859450600101617880565b508061787a565b015190508680616f91565b9250600185016000526020600020906000935b601f198416851061790e576001945083601f198116106178f5575b505050811b016001830155616fa9565b015160001960f88460031b161c191690558680806178e5565b818101518355602094850194600190930192909101906178ca565b909150600185016000526020600020601f840160051c810160208510617975575b90849392915b601f830160051c82018110617966575050616f7a565b60008155859450600101617950565b508061794a565b60405162461bcd60e51b8152602060048201526012602482015271105b1c9958591e481c9959da5cdd195c995960721b6044820152606490fd5b50600260205260ff60036040600020015460a01c1615616e85565b60405162461bcd60e51b815260206004820152601960248201527814995c5d595cdd08185b1c9958591e481cdd589b5a5d1d1959603a1b6044820152606490fd5b60405162461bcd60e51b8152602060048201526013602482015272496e76616c696420656e74697479207479706560681b6044820152606490fd5b5087516020890120617a5d61962d565b6020815191012014616e4e565b346103fd576020806003193601126103fd576004357f11a2e67419c8a61826e52c6605385df709e5cc971ef74a2168cc51f276a39868617c3b60018060a01b03617ab9816000541633146187e9565b83600052601585526040600020908082541691617ad7831515619651565b6009810180549060ff82161580617d70575b617af290619696565b6001809260ff191617905542600b83015580820193604051617b18816107c58189618274565b898151910120617b26619607565b8051908b012003617c465750617be48383541680600052828a52617b5860ff60036040600020015460a01c161561887e565b600284019260405191617b6a8361830a565b604051617b7b816107c58189618274565b8352604051617b91816107c58160038b01618274565b8c840152604051617ba9816107c58160048b01618274565b60408401528060608401528160808401524260a0840152604051617bcc8161835d565b6000815260c08401526000528a5260406000206188ca565b617bf083835416618d9f565b60008051602061986c833981519152617c1b8484541692604051918291604083526040830190618274565b428c8301520390a25b541694604051928392604084526040840190618274565b9042908301520390a3005b90604051617c58816107c58189618274565b898151910120617c6661962d565b8a815191012014617c79575b5050617c24565b617d2a908260005260028a52617c9d60ff60036040600020015460a01c1615618e91565b600284019260405191617caf8361830a565b604051617cc0816107c58189618274565b8352604051617cd6816107c58160038b01618274565b8c840152604051617cee816107c58160048b01618274565b604084015281606084015260808301524260a0830152604051617d108161835d565b6000815260c083015260005260028a5260406000206188ca565b617d3683835416618d4d565b60008051602061994c833981519152617d618484541692604051918291604083526040830190618274565b428c8301520390a28780617c72565b50600882901c60ff1615617ae9565b346103fd576020806003193601126103fd57600435903360005260018152617db460ff60036040600020015460a01c16618e2c565b8160005260058152617dcd60ff604060002054166191be565b8160005260048152604060002090600382019081549260ff8460a01c1660028110156109df57617e0591614656600160029314619207565b60ff8360a81c169160038310156109df576000805160206199ac83398151915293617e3260409415619253565b60ff60a81b1916600160a81b1790558151600181524291810191909152a2005b346103fd5760403660031901126103fd576004356024356001600160401b0381116103fd57617e85903690600401618439565b506000546001600160a01b039190617ea090831633146187e9565b8060005260156020527f5443d31cb6dde812b9cec972df7d830b6ac8f8835b5f6aae934982e186aaba05617f2460406000209384541693617ee2851515619651565b60098101610100815460ff81161580617f2f575b617eff90619696565b61ff00191617905542600b820155604051918291604083526001604084019101618274565b4260208301520390a3005b50600881901c60ff1615617ef6565b346103fd5760003660031901126103fd57617f6460018060a01b036000541633146187e9565b604051601680548083526000918252602080840193927fd833147d7dc355ba459fc788f669e58cfaf9dc25ddcd0702e87d69c7b512428992915b828210617fb55761069e85610b5f81890382618393565b835486529485019460019384019390910190617f9e565b346103fd5760203660031901126103fd57600435600052600e6020526040600020805460405191618004836150f68160018501618274565b6180a660018060a01b039161809883600283015416936003830154169360048301546040519061803b82610ae98160058901618274565b60ff60076040519661805b886180548160068501618274565b0389618393565b0154169661807b6040519a8b9a8b526101008060208d01528b01906183d9565b9360408a01526060890152608088015286820360a08801526183d9565b9084820360c08601526183d9565b90151560e08301520390f35b346103fd5760203660031901126103fd57600435601d548110156103fd57601d60005260008051602061984c8339815191520154604051908152602090f35b346103fd5760203660031901126103fd57602061811461810f618197565b6196de565b6040519015158152f35b346103fd57602090816003193601126103fd576001600160a01b039182618143618197565b16600052601081526040600020928354908184528284019460005282600020926000915b83831061817e5761069e86610692818a0382618393565b8454811687529581019560019485019490920191618167565b600435906001600160a01b03821682036103fd57565b602435906001600160a01b03821682036103fd57565b6020908160408183019282815285518094520193019160005b8281106181ea575050505090565b83516001600160a01b0316855293810193928101926001016181dc565b60165481101561405057601660005260206000200190600090565b80548210156140505760005260206000200190600090565b90600182811c9216801561826a575b602083101461825457565b634e487b7160e01b600052602260045260246000fd5b91607f1691618249565b90600092918054916182858361823a565b9182825260019384811690816000146182e757506001146182a7575b50505050565b90919394506000526020928360002092846000945b8386106182d35750505050010190388080806182a1565b8054858701830152940193859082016182bc565b9294505050602093945060ff191683830152151560051b010190388080806182a1565b60e081019081106001600160401b0382111761124957604052565b6101a081019081106001600160401b0382111761124957604052565b61016081019081106001600160401b0382111761124957604052565b602081019081106001600160401b0382111761124957604052565b604081019081106001600160401b0382111761124957604052565b601f909101601f19168101906001600160401b0382119082101761124957604052565b60005b8381106183c95750506000910152565b81810151838201526020016183b9565b906020916183f2815180928185528580860191016183b6565b601f01601f1916010190565b6020908160408183019282815285518094520193019160005b828110618425575050505090565b835185529381019392810192600101618417565b81601f820112156103fd578035906001600160401b038211611249576040519261846d601f8401601f191660200185618393565b828452602083830101116103fd57816000926020809301838601378301015290565b9060806003198301126103fd576004356001600160a01b03811681036103fd57916001600160401b03916024358381116103fd57826184d091600401618439565b926044358181116103fd57836184e891600401618439565b926064359182116103fd576184ff91600401618439565b90565b9060406003198301126103fd576004356001600160a01b03811681036103fd5791602435906001600160401b0382116103fd576184ff91600401618439565b60609060031901126103fd576001600160a01b039060043582811681036103fd579160243590811681036103fd579060443590565b9395926185a56184ff9896936185976185b39460e0895260e08901906183d9565b9087820360208901526183d9565b9085820360408701526183d9565b6001600160a01b0390951660608401521515608083015260a082015280830360c0909101526183d9565b9060028210156109df5752565b9060038210156109df5752565b60e06003198201126103fd5760049182356001600160a01b03811681036103fd57926001600160401b03926024358481116103fd5781618638918401618439565b936044358181116103fd578261864f918501618439565b936064358281116103fd5783618666918601618439565b936084358381116103fd578461867d918301618439565b9360a4359360c4359081116103fd576184ff9201618439565b6024359081151582036103fd57565b6001600160401b0381116112495760051b60200190565b81601f820112156103fd578035916186d3836186a5565b926186e16040519485618393565b808452602092838086019260051b8201019283116103fd578301905b82821061870b575050505090565b813581529083019083016186fd565b939796959261874a9160c0969360018060a01b03809216875216602086015260e0604086015260e08501906183d9565b96151560608401521515608083015260a08201520152565b60606003198201126103fd576001600160401b03916004358381116103fd578261878e91600401618439565b926024358181116103fd57836187a691600401618439565b926044359182116103fd576184ff91600401618439565b6000546001600160a01b031633036187d157565b60405163118cdaa760e01b8152336004820152602490fd5b156187f057565b60405162461bcd60e51b815260206004820152602260248201527f4f6e6c792061646d696e2063616e20706572666f726d2074686973206163746960448201526137b760f11b6064820152608490fd5b1561884757565b60405162461bcd60e51b815260206004820152600f60248201526e496e76616c6964206164647265737360881b6044820152606490fd5b1561888557565b60405162461bcd60e51b815260206004820152601d60248201527f556e697665727369747920616c726561647920726567697374657265640000006044820152606490fd5b815180516001600160401b03919082811161124957806188ea855461823a565b92601f93848111618cfb575b50602090848311600114618c9657600092618c8b575b50508160011b916000199060031b1c19161783555b6001928381016020860151805190858211611249578190618942845461823a565b868111618c38575b50602090868311600114618bd557600092618bca575b5050600019600383901b1c191690861b1790555b60028101604086015180519085821161124957618991835461823a565b858111618b82575b50602090858311600114618b145791806005949260c09694600092618b09575b5050600019600383901b1c191690881b1790555b6003810160018060a01b0360608901511681549060ff60a01b60808b0151151560a01b169160018060a81b0319161717905560a0870151600482015501940151805192831161124957618a20855461823a565b828111618ac1575b506020918311600114618a6157928293918392600094618a56575b50501b916000199060031b1c1916179055565b015192503880618a43565b90601f198316918560005283826000209360005b87828210618aa857505010618a8f575b505050811b019055565b015160001960f88460031b161c19169055388080618a85565b8486015187559095019460209485019487935001618a75565b8560005260206000208380860160051c82019260208710618b00575b0160051c019085905b828110618af4575050618a28565b60008155018590618ae6565b92508192618add565b0151905038806189b9565b879291601f1983169185600052816000209260005b818110618b6a57509160c09795939185600598969410618b51575b505050811b0190556189cd565b015160001960f88460031b161c19169055388080618b44565b8284015185558b969094019360209384019301618b29565b8360005260206000208680850160051c82019260208610618bc1575b0160051c019088905b828110618bb5575050618999565b60008155018890618ba7565b92508192618b9e565b015190503880618960565b90889350601f1983169185600052816000209260005b818110618c2057508411618c07575b505050811b019055618974565b015160001960f88460031b161c19169055388080618bfa565b8284015185558b969094019360209384019301618beb565b9091508360005260206000208680850160051c82019260208610618c82575b918a91869594930160051c01915b828110618c7357505061894a565b600081558594508a9101618c65565b92508192618c57565b01519050388061890c565b60008781528281209350601f198516905b818110618ce35750908460019594939210618cca575b505050811b018355618921565b015160001960f88460031b161c19169055388080618cbd565b92936020600181928786015181550195019301618ca7565b9091506000868152602081208580860160051c82019360208710618d44575b908695949392910160051c01915b828110618d365750506188f6565b818155859450600101618d28565b93508193618d1a565b601b54600160401b811015611249576001810180601b5581101561405057601b6000526000805160206198ac8339815191520180546001600160a01b0319166001600160a01b03909216919091179055565b601a54600160401b811015611249576001810180601a5581101561405057601a6000526000805160206198ec8339815191520180546001600160a01b0319166001600160a01b03909216919091179055565b8054600160401b81101561124957618e0e91600182018155618222565b819291549060031b9160018060a01b03809116831b921b1916179055565b15618e3357565b60405162461bcd60e51b815260206004820152603060248201527f4f6e6c792061637469766520756e697665727369746965732063616e2070657260448201526f3337b936903a3434b99030b1ba34b7b760811b6064820152608490fd5b15618e9857565b60405162461bcd60e51b815260206004820152601b60248201527a15995c9a599a595c88185b1c9958591e481c9959da5cdd195c9959602a1b6044820152606490fd5b15618ee257565b60405162461bcd60e51b815260206004820152602d60248201527f4f6e6c7920616374697665207665726966696572732063616e20706572666f7260448201526c36903a3434b99030b1ba34b7b760991b6064820152608490fd5b15618f4457565b60405162461bcd60e51b8152602060048201526015602482015274556e6976657273697479206e6f742061637469766560581b6044820152606490fd5b15618f8857565b60405162461bcd60e51b81526020600482015260136024820152725665726966696572206e6f742061637469766560681b6044820152606490fd5b9060ff801983541691151516179055565b15618fdb57565b60405162461bcd60e51b815260206004820152602c60248201527f4f6e6c79206163746976652073747564656e74732063616e20706572666f726d60448201526b103a3434b99030b1ba34b7b760a11b6064820152608490fd5b1561903c57565b60405162461bcd60e51b815260206004820152601660248201527514dd1d59195b9d081b9bdd081c9959da5cdd195c995960521b6044820152606490fd5b1561908157565b60405162461bcd60e51b81526020600482015260186024820152774e6f742073747564656e74277320756e697665727369747960401b6044820152606490fd5b6020906190d760349593828151948592016183b6565b60609390931b6001600160601b031916920191825260148201520190565b156190fc57565b60405162461bcd60e51b815260206004820152601a602482015279436572746966696361746520616c72656164792065786973747360301b6044820152606490fd5b9060038110156109df57815460ff60a81b191660a89190911b60ff60a81b16179055565b601d54600160401b811015611249576001810180601d5581101561405057601d60005260008051602061984c8339815191520155565b805490600160401b82101561124957816172969160016191ba94018155618222565b9055565b156191c557565b60405162461bcd60e51b815260206004820152601a60248201527910d95c9d1a599a58d85d1948191bd95cc81b9bdd08195e1a5cdd60321b6044820152606490fd5b1561920e57565b60405162461bcd60e51b815260206004820152601e60248201527f4e6f742061206e6f6e2d61636164656d696320636572746966696361746500006044820152606490fd5b1561925a57565b60405162461bcd60e51b815260206004820152601d60248201527f436572746966696361746520616c72656164792070726f6365737365640000006044820152606490fd5b9060405191828154918282526020928383019160005283600020936000905b8282106192d6575050506192d492500383618393565b565b8554845260019586019588955093810193909101906192be565b156192f757565b60405162461bcd60e51b815260206004820152601060248201526f105b1c9958591e48185c1c1c9bdd995960821b6044820152606490fd5b1561933657565b60405162461bcd60e51b815260206004820152601060248201526f139bdd081e5bdd5c881c995c5d595cdd60821b6044820152606490fd5b1561937557565b60405162461bcd60e51b815260206004820152601960248201527814995c5d595cdd08185b1c9958591e481c995cdc1bdb991959603a1b6044820152606490fd5b9061ff00825491151560081b169061ff001916179055565b156193d557565b60405162461bcd60e51b81526020600482015260146024820152734e6f7420796f757220636572746966696361746560601b6044820152606490fd5b60001981146194205760010190565b634e487b7160e01b600052601160045260246000fd5b80518210156140505760209160051b010190565b91906048939160018060601b0319809260601b16845260601b16601483015260288201520190565b815181546001600160a01b03199081166001600160a01b039283161783556020808501516001808601805490941691909416179091556040840151805193949093909260028601926001600160401b038311611249576194d2845461823a565b601f81116195be575b5080601f841160011461954f57509180809260c0969594600598600094619544575b50501b916000199060031b1c19161790555b619533600385016195266060840151151582618fc3565b60808301511515906193b6565b60a081015160048501550151910155565b0151925038806194fd565b91939495601f1984168660005283600020936000905b8282106195a7575050916005979593918560c09896941061958e575b505050811b01905561950f565b015160001960f88460031b161c19169055388080619581565b808886978294978701518155019601940190619565565b6000858152828120601f860160051c8101928487106195fd575b601f0160051c019184905b8381106195f2575050506194db565b8281550184906195e3565b90925082906195d8565b6040519061961482618378565b600a825269756e697665727369747960b01b6020830152565b6040519061963a82618378565b60088252673b32b934b334b2b960c11b6020830152565b1561965857565b60405162461bcd60e51b815260206004820152601660248201527514995c5d595cdd08191bd95cc81b9bdd08195e1a5cdd60521b6044820152606490fd5b1561969d57565b60405162461bcd60e51b815260206004820152601960248201527814995c5d595cdd08185b1c9958591e481c1c9bd8d95cdcd959603a1b6044820152606490fd5b6001600160a01b0390811660009081526017602052604090819020548015619823576000526015602052806000209080519261971984618325565b82541683528051619731816107c58160018701618274565b60208401528051619749816107c58160028701618274565b818401528051619760816107c58160038701618274565b60608401528051619778816107c58160048701618274565b60808401528051619790816107c58160058701618274565b60a084015280516197a8816107c58160068701618274565b60c084015280516197c0816107c58160078701618274565b60e0840152516197d7816107c58160088601618274565b610100830152600981015491610180600b60ff8086161595861561012086015260081c1615938415610140850152600a81015461016085015201549101528161981e575090565b905090565b50505060009056fe0e4562a10381dec21b205ed72637e6b1b523bdd0e4d4d50af5cd23dd4500a2116d4407e7be21f808e6509aa9fa9143369579dd7d760fe20a2c09680fc146134f6d2a82044ee87910f07ed458e75a5659400e8a237a889147462c06d80f5125f6207a4c724a9ebb8aa316f91c3bf75244a3daaa8bcd39e95c474ad28f9880135f3ad8aa4f87544323a9d1e5dd902f40c356527a7955687113db5f9a85ad579dc1b553e474a93636b98d9eef14bb7488021b0020196e9607f97b2ee663f0e63f1f057c384a7d1c54f3a1b2e5e67b2617b8224fdfd1ea7234eea573a6ff665ff63ebd347cd76367be348c9e0e985495ca35507b7d530e783dcccf122a52da59bdf78be0079c531659141344cd1fd0a4f28419497f9722a3daafe3b4186f6b6457e071b3df882fa4dfc3ef37e44d815996a4f4677008ebde3ae79ffe49fc7cf8a587dcb94c0b2c025b0736b4b62b1c595f2ca7ad4c711eada6026d477e87de9cca08f4a2c43d18e7e91dcb4750cbea8f9e5c10e30bbee2cf87868f09987fcd31721313e868d6021c60a8d4bf38cbde57709084628ad2a3f2f6cdab537ec19aa3cbbba2646970667358221220bfc2265d7cbff8c430c60e3d5e5b36b34591cb4a481a09f7c889f86ae1724ce464736f6c63430008140033",
  "linkReferences": {},
  "deployedLinkReferences": {}
}